{
  "address": "0x4eDDa5160F3dFd8Ac0eD27c6EDBd428DBAF8C882",
  "abi": [
    {
      "anonymous": false,
      "inputs": [
        {
          "indexed": true,
          "internalType": "address",
          "name": "owner",
          "type": "address"
        },
        {
          "indexed": true,
          "internalType": "address",
          "name": "approved",
          "type": "address"
        },
        {
          "indexed": true,
          "internalType": "uint256",
          "name": "tokenId",
          "type": "uint256"
        }
      ],
      "name": "Approval",
      "type": "event"
    },
    {
      "anonymous": false,
      "inputs": [
        {
          "indexed": true,
          "internalType": "address",
          "name": "owner",
          "type": "address"
        },
        {
          "indexed": true,
          "internalType": "address",
          "name": "operator",
          "type": "address"
        },
        {
          "indexed": false,
          "internalType": "bool",
          "name": "approved",
          "type": "bool"
        }
      ],
      "name": "ApprovalForAll",
      "type": "event"
    },
    {
      "anonymous": false,
      "inputs": [
        {
          "indexed": false,
          "internalType": "uint8",
          "name": "version",
          "type": "uint8"
        }
      ],
      "name": "Initialized",
      "type": "event"
    },
    {
      "anonymous": false,
      "inputs": [
        {
          "indexed": true,
          "internalType": "address",
          "name": "previousOwner",
          "type": "address"
        },
        {
          "indexed": true,
          "internalType": "address",
          "name": "newOwner",
          "type": "address"
        }
      ],
      "name": "OwnershipTransferred",
      "type": "event"
    },
    {
      "anonymous": false,
      "inputs": [
        {
          "indexed": true,
          "internalType": "address",
          "name": "from",
          "type": "address"
        },
        {
          "indexed": true,
          "internalType": "address",
          "name": "to",
          "type": "address"
        },
        {
          "indexed": true,
          "internalType": "uint256",
          "name": "tokenId",
          "type": "uint256"
        }
      ],
      "name": "Transfer",
      "type": "event"
    },
    {
      "inputs": [
        {
          "internalType": "address",
          "name": "to",
          "type": "address"
        },
        {
          "internalType": "uint256",
          "name": "tokenId",
          "type": "uint256"
        }
      ],
      "name": "approve",
      "outputs": [],
      "stateMutability": "nonpayable",
      "type": "function"
    },
    {
      "inputs": [
        {
          "internalType": "address",
          "name": "owner",
          "type": "address"
        }
      ],
      "name": "balanceOf",
      "outputs": [
        {
          "internalType": "uint256",
          "name": "",
          "type": "uint256"
        }
      ],
      "stateMutability": "view",
      "type": "function"
    },
    {
      "inputs": [
        {
          "internalType": "uint256",
          "name": "tokenId",
          "type": "uint256"
        }
      ],
      "name": "getApproved",
      "outputs": [
        {
          "internalType": "address",
          "name": "",
          "type": "address"
        }
      ],
      "stateMutability": "view",
      "type": "function"
    },
    {
      "inputs": [
        {
          "internalType": "address",
          "name": "_owner",
          "type": "address"
        }
      ],
      "name": "init",
      "outputs": [],
      "stateMutability": "nonpayable",
      "type": "function"
    },
    {
      "inputs": [
        {
          "internalType": "address",
          "name": "owner",
          "type": "address"
        },
        {
          "internalType": "address",
          "name": "operator",
          "type": "address"
        }
      ],
      "name": "isApprovedForAll",
      "outputs": [
        {
          "internalType": "bool",
          "name": "",
          "type": "bool"
        }
      ],
      "stateMutability": "view",
      "type": "function"
    },
    {
      "inputs": [
        {
          "components": [
            {
              "internalType": "uint256",
              "name": "chain",
              "type": "uint256"
            },
            {
              "internalType": "address",
              "name": "token",
              "type": "address"
            },
            {
              "internalType": "uint256[]",
              "name": "ids",
              "type": "uint256[]"
            }
          ],
          "internalType": "struct MirrorNFT.MirroringParams[]",
          "name": "_params",
          "type": "tuple[]"
        }
      ],
      "name": "mirror",
      "outputs": [],
      "stateMutability": "nonpayable",
      "type": "function"
    },
    {
      "inputs": [],
      "name": "name",
      "outputs": [
        {
          "internalType": "string",
          "name": "",
          "type": "string"
        }
      ],
      "stateMutability": "view",
      "type": "function"
    },
    {
      "inputs": [
        {
          "internalType": "uint256",
          "name": "",
          "type": "uint256"
        }
      ],
      "name": "nfts",
      "outputs": [
        {
          "internalType": "uint256",
          "name": "",
          "type": "uint256"
        }
      ],
      "stateMutability": "view",
      "type": "function"
    },
    {
      "inputs": [],
      "name": "owner",
      "outputs": [
        {
          "internalType": "address",
          "name": "",
          "type": "address"
        }
      ],
      "stateMutability": "view",
      "type": "function"
    },
    {
      "inputs": [
        {
          "internalType": "uint256",
          "name": "tokenId",
          "type": "uint256"
        }
      ],
      "name": "ownerOf",
      "outputs": [
        {
          "internalType": "address",
          "name": "",
          "type": "address"
        }
      ],
      "stateMutability": "view",
      "type": "function"
    },
    {
      "inputs": [],
      "name": "renounceOwnership",
      "outputs": [],
      "stateMutability": "nonpayable",
      "type": "function"
    },
    {
      "inputs": [
        {
          "internalType": "address",
          "name": "from",
          "type": "address"
        },
        {
          "internalType": "address",
          "name": "to",
          "type": "address"
        },
        {
          "internalType": "uint256",
          "name": "tokenId",
          "type": "uint256"
        }
      ],
      "name": "safeTransferFrom",
      "outputs": [],
      "stateMutability": "nonpayable",
      "type": "function"
    },
    {
      "inputs": [
        {
          "internalType": "address",
          "name": "from",
          "type": "address"
        },
        {
          "internalType": "address",
          "name": "to",
          "type": "address"
        },
        {
          "internalType": "uint256",
          "name": "tokenId",
          "type": "uint256"
        },
        {
          "internalType": "bytes",
          "name": "_data",
          "type": "bytes"
        }
      ],
      "name": "safeTransferFrom",
      "outputs": [],
      "stateMutability": "nonpayable",
      "type": "function"
    },
    {
      "inputs": [
        {
          "internalType": "address",
          "name": "operator",
          "type": "address"
        },
        {
          "internalType": "bool",
          "name": "approved",
          "type": "bool"
        }
      ],
      "name": "setApprovalForAll",
      "outputs": [],
      "stateMutability": "nonpayable",
      "type": "function"
    },
    {
      "inputs": [
        {
          "internalType": "bytes4",
          "name": "interfaceId",
          "type": "bytes4"
        }
      ],
      "name": "supportsInterface",
      "outputs": [
        {
          "internalType": "bool",
          "name": "",
          "type": "bool"
        }
      ],
      "stateMutability": "view",
      "type": "function"
    },
    {
      "inputs": [],
      "name": "symbol",
      "outputs": [
        {
          "internalType": "string",
          "name": "",
          "type": "string"
        }
      ],
      "stateMutability": "view",
      "type": "function"
    },
    {
      "inputs": [
        {
          "internalType": "uint256",
          "name": "_tokenId",
          "type": "uint256"
        }
      ],
      "name": "tokenURI",
      "outputs": [
        {
          "internalType": "string",
          "name": "",
          "type": "string"
        }
      ],
      "stateMutability": "view",
      "type": "function"
    },
    {
      "inputs": [
        {
          "internalType": "address",
          "name": "from",
          "type": "address"
        },
        {
          "internalType": "address",
          "name": "to",
          "type": "address"
        },
        {
          "internalType": "uint256",
          "name": "tokenId",
          "type": "uint256"
        }
      ],
      "name": "transferFrom",
      "outputs": [],
      "stateMutability": "nonpayable",
      "type": "function"
    },
    {
      "inputs": [
        {
          "internalType": "address",
          "name": "newOwner",
          "type": "address"
        }
      ],
      "name": "transferOwnership",
      "outputs": [],
      "stateMutability": "nonpayable",
      "type": "function"
    }
  ],
  "transactionHash": "0xa808a7479ca4a01c56a67eaac66333da1c2e75824a30b1c6858fa097dd6a0f4d",
  "args": [],
  "numDeployments": 1,
  "solcInputHash": "b966f4439954af6a1e9ef42d0338ec88",
  "bytecode": "0x608060405234801561001057600080fd5b5061357b806100206000396000f3fe608060405234801561001057600080fd5b50600436106101215760003560e01c806370a08231116100ad578063a22cb46511610071578063a22cb46514610306578063b88d4fde14610322578063c87b56dd1461033e578063e985e9c51461036e578063f2fde38b1461039e57610121565b806370a0823114610274578063715018a6146102a45780637bc02ec0146102ae5780638da5cb5b146102ca57806395d89b41146102e857610121565b806319ab453c116100f457806319ab453c146101c057806323b872dd146101dc578063265aa621146101f857806342842e0e146102285780636352211e1461024457610121565b806301ffc9a71461012657806306fdde0314610156578063081812fc14610174578063095ea7b3146101a4575b600080fd5b610140600480360381019061013b9190611f26565b6103ba565b60405161014d9190611f6e565b60405180910390f35b61015e61049c565b60405161016b9190612022565b60405180910390f35b61018e6004803603810190610189919061207a565b61052e565b60405161019b91906120e8565b60405180910390f35b6101be60048036038101906101b9919061212f565b6105b3565b005b6101da60048036038101906101d5919061216f565b6106ca565b005b6101f660048036038101906101f1919061219c565b6107d4565b005b610212600480360381019061020d919061207a565b610834565b60405161021f91906121fe565b60405180910390f35b610242600480360381019061023d919061219c565b61084c565b005b61025e6004803603810190610259919061207a565b61086c565b60405161026b91906120e8565b60405180910390f35b61028e6004803603810190610289919061216f565b61091d565b60405161029b91906121fe565b60405180910390f35b6102ac6109d4565b005b6102c860048036038101906102c391906124cc565b610a5c565b005b6102d2610bd2565b6040516102df91906120e8565b60405180910390f35b6102f0610bfc565b6040516102fd9190612022565b60405180910390f35b610320600480360381019061031b9190612541565b610c8e565b005b61033c60048036038101906103379190612636565b610ca4565b005b6103586004803603810190610353919061207a565b610d06565b6040516103659190612022565b60405180910390f35b610388600480360381019061038391906126b9565b610dd2565b6040516103959190611f6e565b60405180910390f35b6103b860048036038101906103b3919061216f565b610e66565b005b60007f80ac58cd000000000000000000000000000000000000000000000000000000007bffffffffffffffffffffffffffffffffffffffffffffffffffffffff1916827bffffffffffffffffffffffffffffffffffffffffffffffffffffffff1916148061048557507f5b5e139f000000000000000000000000000000000000000000000000000000007bffffffffffffffffffffffffffffffffffffffffffffffffffffffff1916827bffffffffffffffffffffffffffffffffffffffffffffffffffffffff1916145b80610495575061049482610f5d565b5b9050919050565b6060609780546104ab90612728565b80601f01602080910402602001604051908101604052809291908181526020018280546104d790612728565b80156105245780601f106104f957610100808354040283529160200191610524565b820191906000526020600020905b81548152906001019060200180831161050757829003601f168201915b5050505050905090565b600061053982610fc7565b610578576040517f08c379a000000000000000000000000000000000000000000000000000000000815260040161056f906127cb565b60405180910390fd5b609b600083815260200190815260200160002060009054906101000a900473ffffffffffffffffffffffffffffffffffffffff169050919050565b60006105be8261086c565b90508073ffffffffffffffffffffffffffffffffffffffff168373ffffffffffffffffffffffffffffffffffffffff160361062e576040517f08c379a00000000000000000000000000000000000000000000000000000000081526004016106259061285d565b60405180910390fd5b8073ffffffffffffffffffffffffffffffffffffffff1661064d611033565b73ffffffffffffffffffffffffffffffffffffffff16148061067c575061067b81610676611033565b610dd2565b5b6106bb576040517f08c379a00000000000000000000000000000000000000000000000000000000081526004016106b2906128ef565b60405180910390fd5b6106c5838361103b565b505050565b60006106d660016110f4565b905080156106fa576001600060016101000a81548160ff0219169083151502179055505b61076e6040518060400160405280600a81526020017f4d6972726f72204e4654000000000000000000000000000000000000000000008152506040518060400160405280600481526020017f4f504650000000000000000000000000000000000000000000000000000000008152506111e4565b61077782611241565b80156107d05760008060016101000a81548160ff0219169083151502179055507f7f26b83ff96e1f2b6a682f133852f6798a09c465da95921460cefb384740249860016040516107c79190612961565b60405180910390a15b5050565b6107e56107df611033565b82611307565b610824576040517f08c379a000000000000000000000000000000000000000000000000000000000815260040161081b906129ee565b60405180910390fd5b61082f8383836113e5565b505050565b60c96020528060005260406000206000915090505481565b61086783838360405180602001604052806000815250610ca4565b505050565b6000806099600084815260200190815260200160002060009054906101000a900473ffffffffffffffffffffffffffffffffffffffff169050600073ffffffffffffffffffffffffffffffffffffffff168173ffffffffffffffffffffffffffffffffffffffff1603610914576040517f08c379a000000000000000000000000000000000000000000000000000000000815260040161090b90612a80565b60405180910390fd5b80915050919050565b60008073ffffffffffffffffffffffffffffffffffffffff168273ffffffffffffffffffffffffffffffffffffffff160361098d576040517f08c379a000000000000000000000000000000000000000000000000000000000815260040161098490612b12565b60405180910390fd5b609a60008373ffffffffffffffffffffffffffffffffffffffff1673ffffffffffffffffffffffffffffffffffffffff168152602001908152602001600020549050919050565b6109dc611033565b73ffffffffffffffffffffffffffffffffffffffff166109fa610bd2565b73ffffffffffffffffffffffffffffffffffffffff1614610a50576040517f08c379a0000000000000000000000000000000000000000000000000000000008152600401610a4790612b7e565b60405180910390fd5b610a5a6000611241565b565b610a64611033565b73ffffffffffffffffffffffffffffffffffffffff16610a82610bd2565b73ffffffffffffffffffffffffffffffffffffffff1614610ad8576040517f08c379a0000000000000000000000000000000000000000000000000000000008152600401610acf90612b7e565b60405180910390fd5b6000610ae2610bd2565b90506000610aef8261091d565b905060005b8351811015610bcc576000848281518110610b1257610b11612b9e565b5b6020026020010151905060008160000151905060008260200151905060005b836040015151811015610bb55760008690508260401b811790508360e01b8117905084604001518281518110610b6a57610b69612b9e565b5b602002602001015160c9600083815260200190815260200160002081905550610b938882611420565b8680610b9e90612bfc565b975050508080610bad90612bfc565b915050610b31565b505050508080610bc490612bfc565b915050610af4565b50505050565b6000603360009054906101000a900473ffffffffffffffffffffffffffffffffffffffff16905090565b606060988054610c0b90612728565b80601f0160208091040260200160405190810160405280929190818152602001828054610c3790612728565b8015610c845780601f10610c5957610100808354040283529160200191610c84565b820191906000526020600020905b815481529060010190602001808311610c6757829003601f168201915b5050505050905090565b610ca0610c99611033565b83836115f9565b5050565b610cb5610caf611033565b83611307565b610cf4576040517f08c379a0000000000000000000000000000000000000000000000000000000008152600401610ceb906129ee565b60405180910390fd5b610d0084848484611765565b50505050565b6060600060c9600084815260200190815260200160002054905060008073ffffffffffffffffffffffffffffffffffffffff8560401c16915067ffffffffffffffff8560e01c169050610d58816117c1565b610d778373ffffffffffffffffffffffffffffffffffffffff16611921565b610d9d610d82610bd2565b73ffffffffffffffffffffffffffffffffffffffff16611921565b610da6866117c1565b604051602001610db99493929190612d3e565b6040516020818303038152906040529350505050919050565b6000609c60008473ffffffffffffffffffffffffffffffffffffffff1673ffffffffffffffffffffffffffffffffffffffff16815260200190815260200160002060008373ffffffffffffffffffffffffffffffffffffffff1673ffffffffffffffffffffffffffffffffffffffff16815260200190815260200160002060009054906101000a900460ff16905092915050565b610e6e611033565b73ffffffffffffffffffffffffffffffffffffffff16610e8c610bd2565b73ffffffffffffffffffffffffffffffffffffffff1614610ee2576040517f08c379a0000000000000000000000000000000000000000000000000000000008152600401610ed990612b7e565b60405180910390fd5b600073ffffffffffffffffffffffffffffffffffffffff168173ffffffffffffffffffffffffffffffffffffffff1603610f51576040517f08c379a0000000000000000000000000000000000000000000000000000000008152600401610f4890612e1a565b60405180910390fd5b610f5a81611241565b50565b60007f01ffc9a7000000000000000000000000000000000000000000000000000000007bffffffffffffffffffffffffffffffffffffffffffffffffffffffff1916827bffffffffffffffffffffffffffffffffffffffffffffffffffffffff1916149050919050565b60008073ffffffffffffffffffffffffffffffffffffffff166099600084815260200190815260200160002060009054906101000a900473ffffffffffffffffffffffffffffffffffffffff1673ffffffffffffffffffffffffffffffffffffffff1614159050919050565b600033905090565b81609b600083815260200190815260200160002060006101000a81548173ffffffffffffffffffffffffffffffffffffffff021916908373ffffffffffffffffffffffffffffffffffffffff160217905550808273ffffffffffffffffffffffffffffffffffffffff166110ae8361086c565b73ffffffffffffffffffffffffffffffffffffffff167f8c5be1e5ebec7d5bd14f71427d1e84f3dd0314c0f7b2291e5b200ac8c7c3b92560405160405180910390a45050565b60008060019054906101000a900460ff161561116b5760018260ff161480156111235750611121306119a6565b155b611162576040517f08c379a000000000000000000000000000000000000000000000000000000000815260040161115990612eac565b60405180910390fd5b600090506111df565b8160ff1660008054906101000a900460ff1660ff16106111c0576040517f08c379a00000000000000000000000000000000000000000000000000000000081526004016111b790612eac565b60405180910390fd5b816000806101000a81548160ff021916908360ff160217905550600190505b919050565b600060019054906101000a900460ff16611233576040517f08c379a000000000000000000000000000000000000000000000000000000000815260040161122a90612f3e565b60405180910390fd5b61123d82826119c9565b5050565b6000603360009054906101000a900473ffffffffffffffffffffffffffffffffffffffff16905081603360006101000a81548173ffffffffffffffffffffffffffffffffffffffff021916908373ffffffffffffffffffffffffffffffffffffffff1602179055508173ffffffffffffffffffffffffffffffffffffffff168173ffffffffffffffffffffffffffffffffffffffff167f8be0079c531659141344cd1fd0a4f28419497f9722a3daafe3b4186f6b6457e060405160405180910390a35050565b600061131282610fc7565b611351576040517f08c379a000000000000000000000000000000000000000000000000000000000815260040161134890612fd0565b60405180910390fd5b600061135c8361086c565b90508073ffffffffffffffffffffffffffffffffffffffff168473ffffffffffffffffffffffffffffffffffffffff16148061139e575061139d8185610dd2565b5b806113dc57508373ffffffffffffffffffffffffffffffffffffffff166113c48461052e565b73ffffffffffffffffffffffffffffffffffffffff16145b91505092915050565b6040517f08c379a000000000000000000000000000000000000000000000000000000000815260040161141790613062565b60405180910390fd5b600073ffffffffffffffffffffffffffffffffffffffff168273ffffffffffffffffffffffffffffffffffffffff160361148f576040517f08c379a0000000000000000000000000000000000000000000000000000000008152600401611486906130ce565b60405180910390fd5b61149881610fc7565b156114d8576040517f08c379a00000000000000000000000000000000000000000000000000000000081526004016114cf9061313a565b60405180910390fd5b6114e460008383611a4a565b6001609a60008473ffffffffffffffffffffffffffffffffffffffff1673ffffffffffffffffffffffffffffffffffffffff1681526020019081526020016000206000828254611534919061315a565b92505081905550816099600083815260200190815260200160002060006101000a81548173ffffffffffffffffffffffffffffffffffffffff021916908373ffffffffffffffffffffffffffffffffffffffff160217905550808273ffffffffffffffffffffffffffffffffffffffff16600073ffffffffffffffffffffffffffffffffffffffff167fddf252ad1be2c89b69c2b068fc378daa952ba7f163c4a11628f55a4df523b3ef60405160405180910390a46115f560008383611a4f565b5050565b8173ffffffffffffffffffffffffffffffffffffffff168373ffffffffffffffffffffffffffffffffffffffff1603611667576040517f08c379a000000000000000000000000000000000000000000000000000000000815260040161165e906131fc565b60405180910390fd5b80609c60008573ffffffffffffffffffffffffffffffffffffffff1673ffffffffffffffffffffffffffffffffffffffff16815260200190815260200160002060008473ffffffffffffffffffffffffffffffffffffffff1673ffffffffffffffffffffffffffffffffffffffff16815260200190815260200160002060006101000a81548160ff0219169083151502179055508173ffffffffffffffffffffffffffffffffffffffff168373ffffffffffffffffffffffffffffffffffffffff167f17307eab39ab6107e8899845ad3d59bd9653f200f220920489ca2b5937696c31836040516117589190611f6e565b60405180910390a3505050565b6117708484846113e5565b61177c84848484611a54565b6117bb576040517f08c379a00000000000000000000000000000000000000000000000000000000081526004016117b29061328e565b60405180910390fd5b50505050565b606060008203611808576040518060400160405280600181526020017f3000000000000000000000000000000000000000000000000000000000000000815250905061191c565b600082905060005b6000821461183a57808061182390612bfc565b915050600a8261183391906132dd565b9150611810565b60008167ffffffffffffffff8111156118565761185561221e565b5b6040519080825280601f01601f1916602001820160405280156118885781602001600182028036833780820191505090505b5090505b60008514611915576001826118a1919061330e565b9150600a856118b09190613342565b60306118bc919061315a565b60f81b8183815181106118d2576118d1612b9e565b5b60200101907effffffffffffffffffffffffffffffffffffffffffffffffffffffffffffff1916908160001a905350600a8561190e91906132dd565b945061188c565b8093505050505b919050565b606060008203611968576040518060400160405280600481526020017f307830300000000000000000000000000000000000000000000000000000000081525090506119a1565b600082905060005b6000821461199257808061198390612bfc565b915050600882901c9150611970565b61199c8482611bdb565b925050505b919050565b6000808273ffffffffffffffffffffffffffffffffffffffff163b119050919050565b600060019054906101000a900460ff16611a18576040517f08c379a0000000000000000000000000000000000000000000000000000000008152600401611a0f90612f3e565b60405180910390fd5b8160979080519060200190611a2e929190611e17565b508060989080519060200190611a45929190611e17565b505050565b505050565b505050565b6000611a758473ffffffffffffffffffffffffffffffffffffffff166119a6565b15611bce578373ffffffffffffffffffffffffffffffffffffffff1663150b7a02611a9e611033565b8786866040518563ffffffff1660e01b8152600401611ac094939291906133c8565b6020604051808303816000875af1925050508015611afc57506040513d601f19601f82011682018060405250810190611af99190613429565b60015b611b7e573d8060008114611b2c576040519150601f19603f3d011682016040523d82523d6000602084013e611b31565b606091505b506000815103611b76576040517f08c379a0000000000000000000000000000000000000000000000000000000008152600401611b6d9061328e565b60405180910390fd5b805181602001fd5b63150b7a0260e01b7bffffffffffffffffffffffffffffffffffffffffffffffffffffffff1916817bffffffffffffffffffffffffffffffffffffffffffffffffffffffff191614915050611bd3565b600190505b949350505050565b606060006002836002611bee9190613456565b611bf8919061315a565b67ffffffffffffffff811115611c1157611c1061221e565b5b6040519080825280601f01601f191660200182016040528015611c435781602001600182028036833780820191505090505b5090507f300000000000000000000000000000000000000000000000000000000000000081600081518110611c7b57611c7a612b9e565b5b60200101907effffffffffffffffffffffffffffffffffffffffffffffffffffffffffffff1916908160001a9053507f780000000000000000000000000000000000000000000000000000000000000081600181518110611cdf57611cde612b9e565b5b60200101907effffffffffffffffffffffffffffffffffffffffffffffffffffffffffffff1916908160001a90535060006001846002611d1f9190613456565b611d29919061315a565b90505b6001811115611dc9577f3031323334353637383961626364656600000000000000000000000000000000600f861660108110611d6b57611d6a612b9e565b5b1a60f81b828281518110611d8257611d81612b9e565b5b60200101907effffffffffffffffffffffffffffffffffffffffffffffffffffffffffffff1916908160001a905350600485901c945080611dc2906134b0565b9050611d2c565b5060008414611e0d576040517f08c379a0000000000000000000000000000000000000000000000000000000008152600401611e0490613525565b60405180910390fd5b8091505092915050565b828054611e2390612728565b90600052602060002090601f016020900481019282611e455760008555611e8c565b82601f10611e5e57805160ff1916838001178555611e8c565b82800160010185558215611e8c579182015b82811115611e8b578251825591602001919060010190611e70565b5b509050611e999190611e9d565b5090565b5b80821115611eb6576000816000905550600101611e9e565b5090565b6000604051905090565b600080fd5b600080fd5b60007fffffffff0000000000000000000000000000000000000000000000000000000082169050919050565b611f0381611ece565b8114611f0e57600080fd5b50565b600081359050611f2081611efa565b92915050565b600060208284031215611f3c57611f3b611ec4565b5b6000611f4a84828501611f11565b91505092915050565b60008115159050919050565b611f6881611f53565b82525050565b6000602082019050611f836000830184611f5f565b92915050565b600081519050919050565b600082825260208201905092915050565b60005b83811015611fc3578082015181840152602081019050611fa8565b83811115611fd2576000848401525b50505050565b6000601f19601f8301169050919050565b6000611ff482611f89565b611ffe8185611f94565b935061200e818560208601611fa5565b61201781611fd8565b840191505092915050565b6000602082019050818103600083015261203c8184611fe9565b905092915050565b6000819050919050565b61205781612044565b811461206257600080fd5b50565b6000813590506120748161204e565b92915050565b6000602082840312156120905761208f611ec4565b5b600061209e84828501612065565b91505092915050565b600073ffffffffffffffffffffffffffffffffffffffff82169050919050565b60006120d2826120a7565b9050919050565b6120e2816120c7565b82525050565b60006020820190506120fd60008301846120d9565b92915050565b61210c816120c7565b811461211757600080fd5b50565b60008135905061212981612103565b92915050565b6000806040838503121561214657612145611ec4565b5b60006121548582860161211a565b925050602061216585828601612065565b9150509250929050565b60006020828403121561218557612184611ec4565b5b60006121938482850161211a565b91505092915050565b6000806000606084860312156121b5576121b4611ec4565b5b60006121c38682870161211a565b93505060206121d48682870161211a565b92505060406121e586828701612065565b9150509250925092565b6121f881612044565b82525050565b600060208201905061221360008301846121ef565b92915050565b600080fd5b7f4e487b7100000000000000000000000000000000000000000000000000000000600052604160045260246000fd5b61225682611fd8565b810181811067ffffffffffffffff821117156122755761227461221e565b5b80604052505050565b6000612288611eba565b9050612294828261224d565b919050565b600067ffffffffffffffff8211156122b4576122b361221e565b5b602082029050602081019050919050565b600080fd5b600080fd5b600080fd5b600067ffffffffffffffff8211156122ef576122ee61221e565b5b602082029050602081019050919050565b600061231361230e846122d4565b61227e565b90508083825260208201905060208402830185811115612336576123356122c5565b5b835b8181101561235f578061234b8882612065565b845260208401935050602081019050612338565b5050509392505050565b600082601f83011261237e5761237d612219565b5b813561238e848260208601612300565b91505092915050565b6000606082840312156123ad576123ac6122ca565b5b6123b7606061227e565b905060006123c784828501612065565b60008301525060206123db8482850161211a565b602083015250604082013567ffffffffffffffff8111156123ff576123fe6122cf565b5b61240b84828501612369565b60408301525092915050565b600061242a61242584612299565b61227e565b9050808382526020820190506020840283018581111561244d5761244c6122c5565b5b835b8181101561249457803567ffffffffffffffff81111561247257612471612219565b5b80860161247f8982612397565b8552602085019450505060208101905061244f565b5050509392505050565b600082601f8301126124b3576124b2612219565b5b81356124c3848260208601612417565b91505092915050565b6000602082840312156124e2576124e1611ec4565b5b600082013567ffffffffffffffff811115612500576124ff611ec9565b5b61250c8482850161249e565b91505092915050565b61251e81611f53565b811461252957600080fd5b50565b60008135905061253b81612515565b92915050565b6000806040838503121561255857612557611ec4565b5b60006125668582860161211a565b92505060206125778582860161252c565b9150509250929050565b600080fd5b600067ffffffffffffffff8211156125a1576125a061221e565b5b6125aa82611fd8565b9050602081019050919050565b82818337600083830152505050565b60006125d96125d484612586565b61227e565b9050828152602081018484840111156125f5576125f4612581565b5b6126008482856125b7565b509392505050565b600082601f83011261261d5761261c612219565b5b813561262d8482602086016125c6565b91505092915050565b600080600080608085870312156126505761264f611ec4565b5b600061265e8782880161211a565b945050602061266f8782880161211a565b935050604061268087828801612065565b925050606085013567ffffffffffffffff8111156126a1576126a0611ec9565b5b6126ad87828801612608565b91505092959194509250565b600080604083850312156126d0576126cf611ec4565b5b60006126de8582860161211a565b92505060206126ef8582860161211a565b9150509250929050565b7f4e487b7100000000000000000000000000000000000000000000000000000000600052602260045260246000fd5b6000600282049050600182168061274057607f821691505b602082108103612753576127526126f9565b5b50919050565b7f4552433732313a20617070726f76656420717565727920666f72206e6f6e657860008201527f697374656e7420746f6b656e0000000000000000000000000000000000000000602082015250565b60006127b5602c83611f94565b91506127c082612759565b604082019050919050565b600060208201905081810360008301526127e4816127a8565b9050919050565b7f4552433732313a20617070726f76616c20746f2063757272656e74206f776e6560008201527f7200000000000000000000000000000000000000000000000000000000000000602082015250565b6000612847602183611f94565b9150612852826127eb565b604082019050919050565b600060208201905081810360008301526128768161283a565b9050919050565b7f4552433732313a20617070726f76652063616c6c6572206973206e6f74206f7760008201527f6e6572206e6f7220617070726f76656420666f7220616c6c0000000000000000602082015250565b60006128d9603883611f94565b91506128e48261287d565b604082019050919050565b60006020820190508181036000830152612908816128cc565b9050919050565b6000819050919050565b600060ff82169050919050565b6000819050919050565b600061294b6129466129418461290f565b612926565b612919565b9050919050565b61295b81612930565b82525050565b60006020820190506129766000830184612952565b92915050565b7f4552433732313a207472616e736665722063616c6c6572206973206e6f74206f60008201527f776e6572206e6f7220617070726f766564000000000000000000000000000000602082015250565b60006129d8603183611f94565b91506129e38261297c565b604082019050919050565b60006020820190508181036000830152612a07816129cb565b9050919050565b7f4552433732313a206f776e657220717565727920666f72206e6f6e657869737460008201527f656e7420746f6b656e0000000000000000000000000000000000000000000000602082015250565b6000612a6a602983611f94565b9150612a7582612a0e565b604082019050919050565b60006020820190508181036000830152612a9981612a5d565b9050919050565b7f4552433732313a2062616c616e636520717565727920666f7220746865207a6560008201527f726f206164647265737300000000000000000000000000000000000000000000602082015250565b6000612afc602a83611f94565b9150612b0782612aa0565b604082019050919050565b60006020820190508181036000830152612b2b81612aef565b9050919050565b7f4f776e61626c653a2063616c6c6572206973206e6f7420746865206f776e6572600082015250565b6000612b68602083611f94565b9150612b7382612b32565b602082019050919050565b60006020820190508181036000830152612b9781612b5b565b9050919050565b7f4e487b7100000000000000000000000000000000000000000000000000000000600052603260045260246000fd5b7f4e487b7100000000000000000000000000000000000000000000000000000000600052601160045260246000fd5b6000612c0782612044565b91507fffffffffffffffffffffffffffffffffffffffffffffffffffffffffffffffff8203612c3957612c38612bcd565b5b600182019050919050565b600081905092915050565b7f68747470733a2f2f6f7066702e6e67726f6b2e696f2f6170692f6d6972726f7260008201527f2f7572692f000000000000000000000000000000000000000000000000000000602082015250565b6000612cab602583612c44565b9150612cb682612c4f565b602582019050919050565b6000612ccc82611f89565b612cd68185612c44565b9350612ce6818560208601611fa5565b80840191505092915050565b7f2f00000000000000000000000000000000000000000000000000000000000000600082015250565b6000612d28600183612c44565b9150612d3382612cf2565b600182019050919050565b6000612d4982612c9e565b9150612d558287612cc1565b9150612d6082612d1b565b9150612d6c8286612cc1565b9150612d7782612d1b565b9150612d838285612cc1565b9150612d8e82612d1b565b9150612d9a8284612cc1565b915081905095945050505050565b7f4f776e61626c653a206e6577206f776e657220697320746865207a65726f206160008201527f6464726573730000000000000000000000000000000000000000000000000000602082015250565b6000612e04602683611f94565b9150612e0f82612da8565b604082019050919050565b60006020820190508181036000830152612e3381612df7565b9050919050565b7f496e697469616c697a61626c653a20636f6e747261637420697320616c72656160008201527f647920696e697469616c697a6564000000000000000000000000000000000000602082015250565b6000612e96602e83611f94565b9150612ea182612e3a565b604082019050919050565b60006020820190508181036000830152612ec581612e89565b9050919050565b7f496e697469616c697a61626c653a20636f6e7472616374206973206e6f74206960008201527f6e697469616c697a696e67000000000000000000000000000000000000000000602082015250565b6000612f28602b83611f94565b9150612f3382612ecc565b604082019050919050565b60006020820190508181036000830152612f5781612f1b565b9050919050565b7f4552433732313a206f70657261746f7220717565727920666f72206e6f6e657860008201527f697374656e7420746f6b656e0000000000000000000000000000000000000000602082015250565b6000612fba602c83611f94565b9150612fc582612f5e565b604082019050919050565b60006020820190508181036000830152612fe981612fad565b9050919050565b7f4d6972726f724e46543a206d6972726f726564204e4654732063616e6e6f742060008201527f6265207472616e73666572726564000000000000000000000000000000000000602082015250565b600061304c602e83611f94565b915061305782612ff0565b604082019050919050565b6000602082019050818103600083015261307b8161303f565b9050919050565b7f4552433732313a206d696e7420746f20746865207a65726f2061646472657373600082015250565b60006130b8602083611f94565b91506130c382613082565b602082019050919050565b600060208201905081810360008301526130e7816130ab565b9050919050565b7f4552433732313a20746f6b656e20616c7265616479206d696e74656400000000600082015250565b6000613124601c83611f94565b915061312f826130ee565b602082019050919050565b6000602082019050818103600083015261315381613117565b9050919050565b600061316582612044565b915061317083612044565b9250827fffffffffffffffffffffffffffffffffffffffffffffffffffffffffffffffff038211156131a5576131a4612bcd565b5b828201905092915050565b7f4552433732313a20617070726f766520746f2063616c6c657200000000000000600082015250565b60006131e6601983611f94565b91506131f1826131b0565b602082019050919050565b60006020820190508181036000830152613215816131d9565b9050919050565b7f4552433732313a207472616e7366657220746f206e6f6e20455243373231526560008201527f63656976657220696d706c656d656e7465720000000000000000000000000000602082015250565b6000613278603283611f94565b91506132838261321c565b604082019050919050565b600060208201905081810360008301526132a78161326b565b9050919050565b7f4e487b7100000000000000000000000000000000000000000000000000000000600052601260045260246000fd5b60006132e882612044565b91506132f383612044565b925082613303576133026132ae565b5b828204905092915050565b600061331982612044565b915061332483612044565b92508282101561333757613336612bcd565b5b828203905092915050565b600061334d82612044565b915061335883612044565b925082613368576133676132ae565b5b828206905092915050565b600081519050919050565b600082825260208201905092915050565b600061339a82613373565b6133a4818561337e565b93506133b4818560208601611fa5565b6133bd81611fd8565b840191505092915050565b60006080820190506133dd60008301876120d9565b6133ea60208301866120d9565b6133f760408301856121ef565b8181036060830152613409818461338f565b905095945050505050565b60008151905061342381611efa565b92915050565b60006020828403121561343f5761343e611ec4565b5b600061344d84828501613414565b91505092915050565b600061346182612044565b915061346c83612044565b9250817fffffffffffffffffffffffffffffffffffffffffffffffffffffffffffffffff04831182151516156134a5576134a4612bcd565b5b828202905092915050565b60006134bb82612044565b9150600082036134ce576134cd612bcd565b5b600182039050919050565b7f537472696e67733a20686578206c656e67746820696e73756666696369656e74600082015250565b600061350f602083611f94565b915061351a826134d9565b602082019050919050565b6000602082019050818103600083015261353e81613502565b905091905056fea264697066735822122004a5470aa703251080e56ff7a1c314ac2a4b0cf9d1d63a0de55e4844f528a6cc64736f6c634300080d0033",
  "devdoc": {
    "kind": "dev",
    "methods": {
      "approve(address,uint256)": {
        "details": "See {IERC721-approve}."
      },
      "balanceOf(address)": {
        "details": "See {IERC721-balanceOf}."
      },
      "getApproved(uint256)": {
        "details": "See {IERC721-getApproved}."
      },
      "isApprovedForAll(address,address)": {
        "details": "See {IERC721-isApprovedForAll}."
      },
      "name()": {
        "details": "See {IERC721Metadata-name}."
      },
      "owner()": {
        "details": "Returns the address of the current owner."
      },
      "ownerOf(uint256)": {
        "details": "See {IERC721-ownerOf}."
      },
      "renounceOwnership()": {
        "details": "Leaves the contract without owner. It will not be possible to call `onlyOwner` functions anymore. Can only be called by the current owner. NOTE: Renouncing ownership will leave the contract without an owner, thereby removing any functionality that is only available to the owner."
      },
      "safeTransferFrom(address,address,uint256)": {
        "details": "See {IERC721-safeTransferFrom}."
      },
      "safeTransferFrom(address,address,uint256,bytes)": {
        "details": "See {IERC721-safeTransferFrom}."
      },
      "setApprovalForAll(address,bool)": {
        "details": "See {IERC721-setApprovalForAll}."
      },
      "supportsInterface(bytes4)": {
        "details": "See {IERC165-supportsInterface}."
      },
      "symbol()": {
        "details": "See {IERC721Metadata-symbol}."
      },
      "transferFrom(address,address,uint256)": {
        "details": "See {IERC721-transferFrom}."
      },
      "transferOwnership(address)": {
        "details": "Transfers ownership of the contract to a new account (`newOwner`). Can only be called by the current owner."
      }
    },
    "version": 1
  },
  "userdoc": {
    "kind": "user",
    "methods": {},
    "version": 1
  },
  "storageLayout": {
    "storage": [
      {
        "astId": 130,
        "contract": "contracts/MirrorNFT.sol:MirrorNFT",
        "label": "_initialized",
        "offset": 0,
        "slot": "0",
        "type": "t_uint8"
      },
      {
        "astId": 133,
        "contract": "contracts/MirrorNFT.sol:MirrorNFT",
        "label": "_initializing",
        "offset": 1,
        "slot": "0",
        "type": "t_bool"
      },
      {
        "astId": 1601,
        "contract": "contracts/MirrorNFT.sol:MirrorNFT",
        "label": "__gap",
        "offset": 0,
        "slot": "1",
        "type": "t_array(t_uint256)50_storage"
      },
      {
        "astId": 10,
        "contract": "contracts/MirrorNFT.sol:MirrorNFT",
        "label": "_owner",
        "offset": 0,
        "slot": "51",
        "type": "t_address"
      },
      {
        "astId": 122,
        "contract": "contracts/MirrorNFT.sol:MirrorNFT",
        "label": "__gap",
        "offset": 0,
        "slot": "52",
        "type": "t_array(t_uint256)49_storage"
      },
      {
        "astId": 1848,
        "contract": "contracts/MirrorNFT.sol:MirrorNFT",
        "label": "__gap",
        "offset": 0,
        "slot": "101",
        "type": "t_array(t_uint256)50_storage"
      },
      {
        "astId": 294,
        "contract": "contracts/MirrorNFT.sol:MirrorNFT",
        "label": "_name",
        "offset": 0,
        "slot": "151",
        "type": "t_string_storage"
      },
      {
        "astId": 296,
        "contract": "contracts/MirrorNFT.sol:MirrorNFT",
        "label": "_symbol",
        "offset": 0,
        "slot": "152",
        "type": "t_string_storage"
      },
      {
        "astId": 300,
        "contract": "contracts/MirrorNFT.sol:MirrorNFT",
        "label": "_owners",
        "offset": 0,
        "slot": "153",
        "type": "t_mapping(t_uint256,t_address)"
      },
      {
        "astId": 304,
        "contract": "contracts/MirrorNFT.sol:MirrorNFT",
        "label": "_balances",
        "offset": 0,
        "slot": "154",
        "type": "t_mapping(t_address,t_uint256)"
      },
      {
        "astId": 308,
        "contract": "contracts/MirrorNFT.sol:MirrorNFT",
        "label": "_tokenApprovals",
        "offset": 0,
        "slot": "155",
        "type": "t_mapping(t_uint256,t_address)"
      },
      {
        "astId": 314,
        "contract": "contracts/MirrorNFT.sol:MirrorNFT",
        "label": "_operatorApprovals",
        "offset": 0,
        "slot": "156",
        "type": "t_mapping(t_address,t_mapping(t_address,t_bool))"
      },
      {
        "astId": 1155,
        "contract": "contracts/MirrorNFT.sol:MirrorNFT",
        "label": "__gap",
        "offset": 0,
        "slot": "157",
        "type": "t_array(t_uint256)44_storage"
      },
      {
        "astId": 2210,
        "contract": "contracts/MirrorNFT.sol:MirrorNFT",
        "label": "nfts",
        "offset": 0,
        "slot": "201",
        "type": "t_mapping(t_uint256,t_uint256)"
      }
    ],
    "types": {
      "t_address": {
        "encoding": "inplace",
        "label": "address",
        "numberOfBytes": "20"
      },
      "t_array(t_uint256)44_storage": {
        "base": "t_uint256",
        "encoding": "inplace",
        "label": "uint256[44]",
        "numberOfBytes": "1408"
      },
      "t_array(t_uint256)49_storage": {
        "base": "t_uint256",
        "encoding": "inplace",
        "label": "uint256[49]",
        "numberOfBytes": "1568"
      },
      "t_array(t_uint256)50_storage": {
        "base": "t_uint256",
        "encoding": "inplace",
        "label": "uint256[50]",
        "numberOfBytes": "1600"
      },
      "t_bool": {
        "encoding": "inplace",
        "label": "bool",
        "numberOfBytes": "1"
      },
      "t_mapping(t_address,t_bool)": {
        "encoding": "mapping",
        "key": "t_address",
        "label": "mapping(address => bool)",
        "numberOfBytes": "32",
        "value": "t_bool"
      },
      "t_mapping(t_address,t_mapping(t_address,t_bool))": {
        "encoding": "mapping",
        "key": "t_address",
        "label": "mapping(address => mapping(address => bool))",
        "numberOfBytes": "32",
        "value": "t_mapping(t_address,t_bool)"
      },
      "t_mapping(t_address,t_uint256)": {
        "encoding": "mapping",
        "key": "t_address",
        "label": "mapping(address => uint256)",
        "numberOfBytes": "32",
        "value": "t_uint256"
      },
      "t_mapping(t_uint256,t_address)": {
        "encoding": "mapping",
        "key": "t_uint256",
        "label": "mapping(uint256 => address)",
        "numberOfBytes": "32",
        "value": "t_address"
      },
      "t_mapping(t_uint256,t_uint256)": {
        "encoding": "mapping",
        "key": "t_uint256",
        "label": "mapping(uint256 => uint256)",
        "numberOfBytes": "32",
        "value": "t_uint256"
      },
      "t_string_storage": {
        "encoding": "bytes",
        "label": "string",
        "numberOfBytes": "32"
      },
      "t_uint256": {
        "encoding": "inplace",
        "label": "uint256",
        "numberOfBytes": "32"
      },
      "t_uint8": {
        "encoding": "inplace",
        "label": "uint8",
        "numberOfBytes": "1"
      }
    }
  }
}