{
  "address": "0xEF76F4523C83fbB8A2833b80b1c13489B4AB1563",
  "abi": [
    {
      "inputs": [
        {
          "internalType": "address",
          "name": "_owner",
          "type": "address"
        }
      ],
      "name": "getMirroredNFT",
      "outputs": [
        {
          "components": [
            {
              "internalType": "contract ERC721",
              "name": "token",
              "type": "address"
            },
            {
              "internalType": "uint256",
              "name": "id",
              "type": "uint256"
            }
          ],
          "internalType": "struct MagicMirrorManager.MirroredNFT",
          "name": "",
          "type": "tuple"
        }
      ],
      "stateMutability": "view",
      "type": "function"
    },
    {
      "inputs": [
        {
          "components": [
            {
              "internalType": "contract ERC721",
              "name": "token",
              "type": "address"
            },
            {
              "internalType": "uint256",
              "name": "id",
              "type": "uint256"
            }
          ],
          "internalType": "struct MagicMirrorManager.MirroredNFT",
          "name": "_nft",
          "type": "tuple"
        }
      ],
      "name": "setMirroredNFT",
      "outputs": [],
      "stateMutability": "nonpayable",
      "type": "function"
    }
  ],
  "transactionHash": "0x80f2f19d6d5117d90a1b96e9972d9c2c7e878424f5b5d671b3b72ed65c09caf7",
  "args": [],
  "numDeployments": 1,
  "solcInputHash": "1e3f99a044cfaa0dfa2f5376df53fe81",
  "bytecode": "0x608060405234801561001057600080fd5b50610a0c806100206000396000f3fe608060405234801561001057600080fd5b50600436106100365760003560e01c80633e0334b91461003b578063c1f7ca101461006b575b600080fd5b6100556004803603810190610050919061053c565b610087565b6040516100629190610610565b60405180910390f35b61008560048036038101906100809190610776565b6102a7565b005b61008f61049f565b60008060008473ffffffffffffffffffffffffffffffffffffffff1673ffffffffffffffffffffffffffffffffffffffff1681526020019081526020016000206040518060400160405290816000820160009054906101000a900473ffffffffffffffffffffffffffffffffffffffff1673ffffffffffffffffffffffffffffffffffffffff1673ffffffffffffffffffffffffffffffffffffffff1681526020016001820154815250509050600073ffffffffffffffffffffffffffffffffffffffff16816000015173ffffffffffffffffffffffffffffffffffffffff16036101af576040517f08c379a00000000000000000000000000000000000000000000000000000000081526004016101a690610826565b60405180910390fd5b8273ffffffffffffffffffffffffffffffffffffffff16816000015173ffffffffffffffffffffffffffffffffffffffff16636352211e83602001516040518263ffffffff1660e01b81526004016102079190610855565b602060405180830381865afa158015610224573d6000803e3d6000fd5b505050506040513d601f19601f820116820180604052508101906102489190610885565b73ffffffffffffffffffffffffffffffffffffffff161461029e576040517f08c379a000000000000000000000000000000000000000000000000000000000815260040161029590610924565b60405180910390fd5b80915050919050565b600073ffffffffffffffffffffffffffffffffffffffff16816000015173ffffffffffffffffffffffffffffffffffffffff160361031a576040517f08c379a0000000000000000000000000000000000000000000000000000000008152600401610311906109b6565b60405180910390fd5b3373ffffffffffffffffffffffffffffffffffffffff16816000015173ffffffffffffffffffffffffffffffffffffffff16636352211e83602001516040518263ffffffff1660e01b81526004016103729190610855565b602060405180830381865afa15801561038f573d6000803e3d6000fd5b505050506040513d601f19601f820116820180604052508101906103b39190610885565b73ffffffffffffffffffffffffffffffffffffffff1614610409576040517f08c379a000000000000000000000000000000000000000000000000000000000815260040161040090610924565b60405180910390fd5b806000803373ffffffffffffffffffffffffffffffffffffffff1673ffffffffffffffffffffffffffffffffffffffff16815260200190815260200160002060008201518160000160006101000a81548173ffffffffffffffffffffffffffffffffffffffff021916908373ffffffffffffffffffffffffffffffffffffffff1602179055506020820151816001015590505050565b6040518060400160405280600073ffffffffffffffffffffffffffffffffffffffff168152602001600081525090565b6000604051905090565b600080fd5b600073ffffffffffffffffffffffffffffffffffffffff82169050919050565b6000610509826104de565b9050919050565b610519816104fe565b811461052457600080fd5b50565b60008135905061053681610510565b92915050565b600060208284031215610552576105516104d9565b5b600061056084828501610527565b91505092915050565b6000819050919050565b600061058e610589610584846104de565b610569565b6104de565b9050919050565b60006105a082610573565b9050919050565b60006105b282610595565b9050919050565b6105c2816105a7565b82525050565b6000819050919050565b6105db816105c8565b82525050565b6040820160008201516105f760008501826105b9565b50602082015161060a60208501826105d2565b50505050565b600060408201905061062560008301846105e1565b92915050565b600080fd5b6000601f19601f8301169050919050565b7f4e487b7100000000000000000000000000000000000000000000000000000000600052604160045260246000fd5b61067982610630565b810181811067ffffffffffffffff8211171561069857610697610641565b5b80604052505050565b60006106ab6104cf565b90506106b78282610670565b919050565b60006106c7826104fe565b9050919050565b6106d7816106bc565b81146106e257600080fd5b50565b6000813590506106f4816106ce565b92915050565b610703816105c8565b811461070e57600080fd5b50565b600081359050610720816106fa565b92915050565b60006040828403121561073c5761073b61062b565b5b61074660406106a1565b90506000610756848285016106e5565b600083015250602061076a84828501610711565b60208301525092915050565b60006040828403121561078c5761078b6104d9565b5b600061079a84828501610726565b91505092915050565b600082825260208201905092915050565b7f4d616769634d6972726f724d616e616765723a2073656e64657220686173206e60008201527f6f74207365742061206d6972726f726564204e46540000000000000000000000602082015250565b60006108106035836107a3565b915061081b826107b4565b604082019050919050565b6000602082019050818103600083015261083f81610803565b9050919050565b61084f816105c8565b82525050565b600060208201905061086a6000830184610846565b92915050565b60008151905061087f81610510565b92915050565b60006020828403121561089b5761089a6104d9565b5b60006108a984828501610870565b91505092915050565b7f4d616769634d6972726f724d616e616765723a2073656e64657220646f65732060008201527f6e6f74206f776e2074686973204e465400000000000000000000000000000000602082015250565b600061090e6030836107a3565b9150610919826108b2565b604082019050919050565b6000602082019050818103600083015261093d81610901565b9050919050565b7f4d616769634d6972726f724d616e616765723a20746f6b656e2063616e6e6f7460008201527f2062652061646472657373283029000000000000000000000000000000000000602082015250565b60006109a0602e836107a3565b91506109ab82610944565b604082019050919050565b600060208201905081810360008301526109cf81610993565b905091905056fea2646970667358221220889317037a79676b93fb8b33ad6b3b4d7dcbd60fbb6e142dcbc808951571471364736f6c634300080d0033",
  "devdoc": {
    "kind": "dev",
    "methods": {
      "getMirroredNFT(address)": {
        "params": {
          "_owner": "Address to retrieve a mirrored NFT for."
        },
        "returns": {
          "_0": "Mirrored NFT for the given address."
        }
      },
      "setMirroredNFT((address,uint256))": {
        "params": {
          "_nft": "New NFT to mirror."
        }
      }
    },
    "title": "MagicMirrorManager",
    "version": 1
  },
  "userdoc": {
    "kind": "user",
    "methods": {
      "getMirroredNFT(address)": {
        "notice": "Retrieves the mirrored NFT for a given address."
      },
      "setMirroredNFT((address,uint256))": {
        "notice": "Updates the sender's mirrored NFT."
      }
    },
    "notice": "MagicMirrorManager is a contract meant to be deployed on the network where the NFTs to         be mirrored currently exist. Users can select one NFT to act as the mirrored NFT and can         update this NFT by sending a transaction to the MagicMirrorManager.",
    "version": 1
  },
  "storageLayout": {
    "storage": [
      {
        "astId": 1704,
        "contract": "contracts/MagicMirrorManager.sol:MagicMirrorManager",
        "label": "mirror",
        "offset": 0,
        "slot": "0",
        "type": "t_mapping(t_address,t_struct(MirroredNFT)1698_storage)"
      }
    ],
    "types": {
      "t_address": {
        "encoding": "inplace",
        "label": "address",
        "numberOfBytes": "20"
      },
      "t_contract(ERC721)970": {
        "encoding": "inplace",
        "label": "contract ERC721",
        "numberOfBytes": "20"
      },
      "t_mapping(t_address,t_struct(MirroredNFT)1698_storage)": {
        "encoding": "mapping",
        "key": "t_address",
        "label": "mapping(address => struct MagicMirrorManager.MirroredNFT)",
        "numberOfBytes": "32",
        "value": "t_struct(MirroredNFT)1698_storage"
      },
      "t_struct(MirroredNFT)1698_storage": {
        "encoding": "inplace",
        "label": "struct MagicMirrorManager.MirroredNFT",
        "members": [
          {
            "astId": 1695,
            "contract": "contracts/MagicMirrorManager.sol:MagicMirrorManager",
            "label": "token",
            "offset": 0,
            "slot": "0",
            "type": "t_contract(ERC721)970"
          },
          {
            "astId": 1697,
            "contract": "contracts/MagicMirrorManager.sol:MagicMirrorManager",
            "label": "id",
            "offset": 0,
            "slot": "1",
            "type": "t_uint256"
          }
        ],
        "numberOfBytes": "64"
      },
      "t_uint256": {
        "encoding": "inplace",
        "label": "uint256",
        "numberOfBytes": "32"
      }
    }
  }
}