{
  "address": "0x1dE1daC8A8EC70d48cadCCE1f93AeB54263a3EC8",
  "abi": [
    {
      "inputs": [
        {
          "internalType": "address",
          "name": "_owner",
          "type": "address"
        },
        {
          "internalType": "string",
          "name": "_api",
          "type": "string"
        },
        {
          "internalType": "uint256",
          "name": "_chain",
          "type": "uint256"
        }
      ],
      "stateMutability": "nonpayable",
      "type": "constructor"
    },
    {
      "anonymous": false,
      "inputs": [
        {
          "indexed": true,
          "internalType": "address",
          "name": "owner",
          "type": "address"
        },
        {
          "indexed": true,
          "internalType": "address",
          "name": "approved",
          "type": "address"
        },
        {
          "indexed": true,
          "internalType": "uint256",
          "name": "tokenId",
          "type": "uint256"
        }
      ],
      "name": "Approval",
      "type": "event"
    },
    {
      "anonymous": false,
      "inputs": [
        {
          "indexed": true,
          "internalType": "address",
          "name": "owner",
          "type": "address"
        },
        {
          "indexed": true,
          "internalType": "address",
          "name": "operator",
          "type": "address"
        },
        {
          "indexed": false,
          "internalType": "bool",
          "name": "approved",
          "type": "bool"
        }
      ],
      "name": "ApprovalForAll",
      "type": "event"
    },
    {
      "anonymous": false,
      "inputs": [
        {
          "indexed": true,
          "internalType": "address",
          "name": "previousOwner",
          "type": "address"
        },
        {
          "indexed": true,
          "internalType": "address",
          "name": "newOwner",
          "type": "address"
        }
      ],
      "name": "OwnershipTransferred",
      "type": "event"
    },
    {
      "anonymous": false,
      "inputs": [
        {
          "indexed": true,
          "internalType": "address",
          "name": "from",
          "type": "address"
        },
        {
          "indexed": true,
          "internalType": "address",
          "name": "to",
          "type": "address"
        },
        {
          "indexed": true,
          "internalType": "uint256",
          "name": "tokenId",
          "type": "uint256"
        }
      ],
      "name": "Transfer",
      "type": "event"
    },
    {
      "inputs": [],
      "name": "api",
      "outputs": [
        {
          "internalType": "string",
          "name": "",
          "type": "string"
        }
      ],
      "stateMutability": "view",
      "type": "function"
    },
    {
      "inputs": [
        {
          "internalType": "address",
          "name": "to",
          "type": "address"
        },
        {
          "internalType": "uint256",
          "name": "tokenId",
          "type": "uint256"
        }
      ],
      "name": "approve",
      "outputs": [],
      "stateMutability": "nonpayable",
      "type": "function"
    },
    {
      "inputs": [
        {
          "internalType": "address",
          "name": "owner",
          "type": "address"
        }
      ],
      "name": "balanceOf",
      "outputs": [
        {
          "internalType": "uint256",
          "name": "",
          "type": "uint256"
        }
      ],
      "stateMutability": "view",
      "type": "function"
    },
    {
      "inputs": [],
      "name": "chain",
      "outputs": [
        {
          "internalType": "uint256",
          "name": "",
          "type": "uint256"
        }
      ],
      "stateMutability": "view",
      "type": "function"
    },
    {
      "inputs": [
        {
          "internalType": "uint256",
          "name": "tokenId",
          "type": "uint256"
        }
      ],
      "name": "getApproved",
      "outputs": [
        {
          "internalType": "address",
          "name": "",
          "type": "address"
        }
      ],
      "stateMutability": "view",
      "type": "function"
    },
    {
      "inputs": [
        {
          "internalType": "address",
          "name": "owner",
          "type": "address"
        },
        {
          "internalType": "address",
          "name": "operator",
          "type": "address"
        }
      ],
      "name": "isApprovedForAll",
      "outputs": [
        {
          "internalType": "bool",
          "name": "",
          "type": "bool"
        }
      ],
      "stateMutability": "view",
      "type": "function"
    },
    {
      "inputs": [],
      "name": "mint",
      "outputs": [],
      "stateMutability": "nonpayable",
      "type": "function"
    },
    {
      "inputs": [],
      "name": "name",
      "outputs": [
        {
          "internalType": "string",
          "name": "",
          "type": "string"
        }
      ],
      "stateMutability": "view",
      "type": "function"
    },
    {
      "inputs": [],
      "name": "owner",
      "outputs": [
        {
          "internalType": "address",
          "name": "",
          "type": "address"
        }
      ],
      "stateMutability": "view",
      "type": "function"
    },
    {
      "inputs": [
        {
          "internalType": "uint256",
          "name": "tokenId",
          "type": "uint256"
        }
      ],
      "name": "ownerOf",
      "outputs": [
        {
          "internalType": "address",
          "name": "",
          "type": "address"
        }
      ],
      "stateMutability": "view",
      "type": "function"
    },
    {
      "inputs": [],
      "name": "renounceOwnership",
      "outputs": [],
      "stateMutability": "nonpayable",
      "type": "function"
    },
    {
      "inputs": [
        {
          "internalType": "address",
          "name": "from",
          "type": "address"
        },
        {
          "internalType": "address",
          "name": "to",
          "type": "address"
        },
        {
          "internalType": "uint256",
          "name": "tokenId",
          "type": "uint256"
        }
      ],
      "name": "safeTransferFrom",
      "outputs": [],
      "stateMutability": "nonpayable",
      "type": "function"
    },
    {
      "inputs": [
        {
          "internalType": "address",
          "name": "from",
          "type": "address"
        },
        {
          "internalType": "address",
          "name": "to",
          "type": "address"
        },
        {
          "internalType": "uint256",
          "name": "tokenId",
          "type": "uint256"
        },
        {
          "internalType": "bytes",
          "name": "_data",
          "type": "bytes"
        }
      ],
      "name": "safeTransferFrom",
      "outputs": [],
      "stateMutability": "nonpayable",
      "type": "function"
    },
    {
      "inputs": [
        {
          "internalType": "string",
          "name": "_api",
          "type": "string"
        }
      ],
      "name": "setAPI",
      "outputs": [],
      "stateMutability": "nonpayable",
      "type": "function"
    },
    {
      "inputs": [
        {
          "internalType": "address",
          "name": "operator",
          "type": "address"
        },
        {
          "internalType": "bool",
          "name": "approved",
          "type": "bool"
        }
      ],
      "name": "setApprovalForAll",
      "outputs": [],
      "stateMutability": "nonpayable",
      "type": "function"
    },
    {
      "inputs": [
        {
          "internalType": "bytes4",
          "name": "interfaceId",
          "type": "bytes4"
        }
      ],
      "name": "supportsInterface",
      "outputs": [
        {
          "internalType": "bool",
          "name": "",
          "type": "bool"
        }
      ],
      "stateMutability": "view",
      "type": "function"
    },
    {
      "inputs": [],
      "name": "symbol",
      "outputs": [
        {
          "internalType": "string",
          "name": "",
          "type": "string"
        }
      ],
      "stateMutability": "view",
      "type": "function"
    },
    {
      "inputs": [
        {
          "internalType": "uint256",
          "name": "_tokenId",
          "type": "uint256"
        }
      ],
      "name": "tokenURI",
      "outputs": [
        {
          "internalType": "string",
          "name": "",
          "type": "string"
        }
      ],
      "stateMutability": "view",
      "type": "function"
    },
    {
      "inputs": [
        {
          "internalType": "address",
          "name": "from",
          "type": "address"
        },
        {
          "internalType": "address",
          "name": "to",
          "type": "address"
        },
        {
          "internalType": "uint256",
          "name": "tokenId",
          "type": "uint256"
        }
      ],
      "name": "transferFrom",
      "outputs": [],
      "stateMutability": "nonpayable",
      "type": "function"
    },
    {
      "inputs": [
        {
          "internalType": "address",
          "name": "newOwner",
          "type": "address"
        }
      ],
      "name": "transferOwnership",
      "outputs": [],
      "stateMutability": "nonpayable",
      "type": "function"
    }
  ],
  "transactionHash": "0xad8746d56ab5bde74dea67ca447d040483f89d3632ec4a93cb80aec245d768cf",
  "args": [
    "0x68108902De3A5031197a6eB3b74b3b033e8E8e4d",
    "https://opfp.art/api/mirror/uri/",
    10
  ],
  "numDeployments": 2,
  "solcInputHash": "918ead34fb9f272616f27ebd217b5871",
  "bytecode": "0x60a06040523480156200001157600080fd5b50604051620034ec380380620034ec8339818101604052810190620000379190620004ed565b6040518060400160405280601081526020017f4d61676963204d6972726f72204e4654000000000000000000000000000000008152506040518060400160405280600581526020017f4d4d4e46540000000000000000000000000000000000000000000000000000008152508160009080519060200190620000bb92919062000200565b508060019080519060200190620000d492919062000200565b505050620000f7620000eb6200013260201b60201c565b6200013a60201b60201c565b81600790805190602001906200010f92919062000200565b50806080818152505062000129836200013a60201b60201c565b505050620005cc565b600033905090565b6000600660009054906101000a900473ffffffffffffffffffffffffffffffffffffffff16905081600660006101000a81548173ffffffffffffffffffffffffffffffffffffffff021916908373ffffffffffffffffffffffffffffffffffffffff1602179055508173ffffffffffffffffffffffffffffffffffffffff168173ffffffffffffffffffffffffffffffffffffffff167f8be0079c531659141344cd1fd0a4f28419497f9722a3daafe3b4186f6b6457e060405160405180910390a35050565b8280546200020e9062000597565b90600052602060002090601f0160209004810192826200023257600085556200027e565b82601f106200024d57805160ff19168380011785556200027e565b828001600101855582156200027e579182015b828111156200027d57825182559160200191906001019062000260565b5b5090506200028d919062000291565b5090565b5b80821115620002ac57600081600090555060010162000292565b5090565b6000604051905090565b600080fd5b600080fd5b600073ffffffffffffffffffffffffffffffffffffffff82169050919050565b6000620002f182620002c4565b9050919050565b6200030381620002e4565b81146200030f57600080fd5b50565b6000815190506200032381620002f8565b92915050565b600080fd5b600080fd5b6000601f19601f8301169050919050565b7f4e487b7100000000000000000000000000000000000000000000000000000000600052604160045260246000fd5b6200037e8262000333565b810181811067ffffffffffffffff82111715620003a0576200039f62000344565b5b80604052505050565b6000620003b5620002b0565b9050620003c3828262000373565b919050565b600067ffffffffffffffff821115620003e657620003e562000344565b5b620003f18262000333565b9050602081019050919050565b60005b838110156200041e57808201518184015260208101905062000401565b838111156200042e576000848401525b50505050565b60006200044b6200044584620003c8565b620003a9565b9050828152602081018484840111156200046a57620004696200032e565b5b62000477848285620003fe565b509392505050565b600082601f83011262000497576200049662000329565b5b8151620004a984826020860162000434565b91505092915050565b6000819050919050565b620004c781620004b2565b8114620004d357600080fd5b50565b600081519050620004e781620004bc565b92915050565b600080600060608486031215620005095762000508620002ba565b5b6000620005198682870162000312565b935050602084015167ffffffffffffffff8111156200053d576200053c620002bf565b5b6200054b868287016200047f565b92505060406200055e86828701620004d6565b9150509250925092565b7f4e487b7100000000000000000000000000000000000000000000000000000000600052602260045260246000fd5b60006002820490506001821680620005b057607f821691505b602082108103620005c657620005c562000568565b5b50919050565b608051612efd620005ef60003960008181610b2d0152610b580152612efd6000f3fe608060405234801561001057600080fd5b506004361061012c5760003560e01c8063715018a6116100ad578063c763e5a111610071578063c763e5a114610307578063c87b56dd14610325578063d2c18e0b14610355578063e985e9c514610373578063f2fde38b146103a35761012c565b8063715018a6146102895780638da5cb5b1461029357806395d89b41146102b1578063a22cb465146102cf578063b88d4fde146102eb5761012c565b806323b872dd116100f457806323b872dd146101d557806342842e0e146101f15780636352211e1461020d578063696cf2a01461023d57806370a08231146102595761012c565b806301ffc9a71461013157806306fdde0314610161578063081812fc1461017f578063095ea7b3146101af5780631249c58b146101cb575b600080fd5b61014b60048036038101906101469190611bd7565b6103bf565b6040516101589190611c1f565b60405180910390f35b6101696104a1565b6040516101769190611cd3565b60405180910390f35b61019960048036038101906101949190611d2b565b610533565b6040516101a69190611d99565b60405180910390f35b6101c960048036038101906101c49190611de0565b6105b8565b005b6101d36106cf565b005b6101ef60048036038101906101ea9190611e20565b6106f1565b005b61020b60048036038101906102069190611e20565b610751565b005b61022760048036038101906102229190611d2b565b610771565b6040516102349190611d99565b60405180910390f35b61025760048036038101906102529190611fa8565b610822565b005b610273600480360381019061026e9190611ff1565b6108b8565b604051610280919061202d565b60405180910390f35b61029161096f565b005b61029b6109f7565b6040516102a89190611d99565b60405180910390f35b6102b9610a21565b6040516102c69190611cd3565b60405180910390f35b6102e960048036038101906102e49190612074565b610ab3565b005b61030560048036038101906103009190612155565b610ac9565b005b61030f610b2b565b60405161031c919061202d565b60405180910390f35b61033f600480360381019061033a9190611d2b565b610b4f565b60405161034c9190611cd3565b60405180910390f35b61035d610bc3565b60405161036a9190611cd3565b60405180910390f35b61038d600480360381019061038891906121d8565b610c51565b60405161039a9190611c1f565b60405180910390f35b6103bd60048036038101906103b89190611ff1565b610ce5565b005b60007f80ac58cd000000000000000000000000000000000000000000000000000000007bffffffffffffffffffffffffffffffffffffffffffffffffffffffff1916827bffffffffffffffffffffffffffffffffffffffffffffffffffffffff1916148061048a57507f5b5e139f000000000000000000000000000000000000000000000000000000007bffffffffffffffffffffffffffffffffffffffffffffffffffffffff1916827bffffffffffffffffffffffffffffffffffffffffffffffffffffffff1916145b8061049a575061049982610ddc565b5b9050919050565b6060600080546104b090612247565b80601f01602080910402602001604051908101604052809291908181526020018280546104dc90612247565b80156105295780601f106104fe57610100808354040283529160200191610529565b820191906000526020600020905b81548152906001019060200180831161050c57829003601f168201915b5050505050905090565b600061053e82610e46565b61057d576040517f08c379a0000000000000000000000000000000000000000000000000000000008152600401610574906122ea565b60405180910390fd5b6004600083815260200190815260200160002060009054906101000a900473ffffffffffffffffffffffffffffffffffffffff169050919050565b60006105c382610771565b90508073ffffffffffffffffffffffffffffffffffffffff168373ffffffffffffffffffffffffffffffffffffffff1603610633576040517f08c379a000000000000000000000000000000000000000000000000000000000815260040161062a9061237c565b60405180910390fd5b8073ffffffffffffffffffffffffffffffffffffffff16610652610eb2565b73ffffffffffffffffffffffffffffffffffffffff16148061068157506106808161067b610eb2565b610c51565b5b6106c0576040517f08c379a00000000000000000000000000000000000000000000000000000000081526004016106b79061240e565b60405180910390fd5b6106ca8383610eba565b505050565b6106ef333373ffffffffffffffffffffffffffffffffffffffff16610f73565b565b6107026106fc610eb2565b8261114c565b610741576040517f08c379a0000000000000000000000000000000000000000000000000000000008152600401610738906124a0565b60405180910390fd5b61074c83838361122a565b505050565b61076c83838360405180602001604052806000815250610ac9565b505050565b6000806002600084815260200190815260200160002060009054906101000a900473ffffffffffffffffffffffffffffffffffffffff169050600073ffffffffffffffffffffffffffffffffffffffff168173ffffffffffffffffffffffffffffffffffffffff1603610819576040517f08c379a000000000000000000000000000000000000000000000000000000000815260040161081090612532565b60405180910390fd5b80915050919050565b61082a610eb2565b73ffffffffffffffffffffffffffffffffffffffff166108486109f7565b73ffffffffffffffffffffffffffffffffffffffff161461089e576040517f08c379a00000000000000000000000000000000000000000000000000000000081526004016108959061259e565b60405180910390fd5b80600790805190602001906108b4929190611ac8565b5050565b60008073ffffffffffffffffffffffffffffffffffffffff168273ffffffffffffffffffffffffffffffffffffffff1603610928576040517f08c379a000000000000000000000000000000000000000000000000000000000815260040161091f90612630565b60405180910390fd5b600360008373ffffffffffffffffffffffffffffffffffffffff1673ffffffffffffffffffffffffffffffffffffffff168152602001908152602001600020549050919050565b610977610eb2565b73ffffffffffffffffffffffffffffffffffffffff166109956109f7565b73ffffffffffffffffffffffffffffffffffffffff16146109eb576040517f08c379a00000000000000000000000000000000000000000000000000000000081526004016109e29061259e565b60405180910390fd5b6109f56000611265565b565b6000600660009054906101000a900473ffffffffffffffffffffffffffffffffffffffff16905090565b606060018054610a3090612247565b80601f0160208091040260200160405190810160405280929190818152602001828054610a5c90612247565b8015610aa95780601f10610a7e57610100808354040283529160200191610aa9565b820191906000526020600020905b815481529060010190602001808311610a8c57829003601f168201915b5050505050905090565b610ac5610abe610eb2565b838361132b565b5050565b610ada610ad4610eb2565b8361114c565b610b19576040517f08c379a0000000000000000000000000000000000000000000000000000000008152600401610b10906124a0565b60405180910390fd5b610b2584848484611497565b50505050565b7f000000000000000000000000000000000000000000000000000000000000000081565b60606007610b7c7f00000000000000000000000000000000000000000000000000000000000000006114f3565b610b9b8473ffffffffffffffffffffffffffffffffffffffff16611653565b604051602001610bad9392919061276c565b6040516020818303038152906040529050919050565b60078054610bd090612247565b80601f0160208091040260200160405190810160405280929190818152602001828054610bfc90612247565b8015610c495780601f10610c1e57610100808354040283529160200191610c49565b820191906000526020600020905b815481529060010190602001808311610c2c57829003601f168201915b505050505081565b6000600560008473ffffffffffffffffffffffffffffffffffffffff1673ffffffffffffffffffffffffffffffffffffffff16815260200190815260200160002060008373ffffffffffffffffffffffffffffffffffffffff1673ffffffffffffffffffffffffffffffffffffffff16815260200190815260200160002060009054906101000a900460ff16905092915050565b610ced610eb2565b73ffffffffffffffffffffffffffffffffffffffff16610d0b6109f7565b73ffffffffffffffffffffffffffffffffffffffff1614610d61576040517f08c379a0000000000000000000000000000000000000000000000000000000008152600401610d589061259e565b60405180910390fd5b600073ffffffffffffffffffffffffffffffffffffffff168173ffffffffffffffffffffffffffffffffffffffff1603610dd0576040517f08c379a0000000000000000000000000000000000000000000000000000000008152600401610dc79061281a565b60405180910390fd5b610dd981611265565b50565b60007f01ffc9a7000000000000000000000000000000000000000000000000000000007bffffffffffffffffffffffffffffffffffffffffffffffffffffffff1916827bffffffffffffffffffffffffffffffffffffffffffffffffffffffff1916149050919050565b60008073ffffffffffffffffffffffffffffffffffffffff166002600084815260200190815260200160002060009054906101000a900473ffffffffffffffffffffffffffffffffffffffff1673ffffffffffffffffffffffffffffffffffffffff1614159050919050565b600033905090565b816004600083815260200190815260200160002060006101000a81548173ffffffffffffffffffffffffffffffffffffffff021916908373ffffffffffffffffffffffffffffffffffffffff160217905550808273ffffffffffffffffffffffffffffffffffffffff16610f2d83610771565b73ffffffffffffffffffffffffffffffffffffffff167f8c5be1e5ebec7d5bd14f71427d1e84f3dd0314c0f7b2291e5b200ac8c7c3b92560405160405180910390a45050565b600073ffffffffffffffffffffffffffffffffffffffff168273ffffffffffffffffffffffffffffffffffffffff1603610fe2576040517f08c379a0000000000000000000000000000000000000000000000000000000008152600401610fd990612886565b60405180910390fd5b610feb81610e46565b1561102b576040517f08c379a0000000000000000000000000000000000000000000000000000000008152600401611022906128f2565b60405180910390fd5b611037600083836116d8565b6001600360008473ffffffffffffffffffffffffffffffffffffffff1673ffffffffffffffffffffffffffffffffffffffff16815260200190815260200160002060008282546110879190612941565b92505081905550816002600083815260200190815260200160002060006101000a81548173ffffffffffffffffffffffffffffffffffffffff021916908373ffffffffffffffffffffffffffffffffffffffff160217905550808273ffffffffffffffffffffffffffffffffffffffff16600073ffffffffffffffffffffffffffffffffffffffff167fddf252ad1be2c89b69c2b068fc378daa952ba7f163c4a11628f55a4df523b3ef60405160405180910390a4611148600083836116dd565b5050565b600061115782610e46565b611196576040517f08c379a000000000000000000000000000000000000000000000000000000000815260040161118d90612a09565b60405180910390fd5b60006111a183610771565b90508073ffffffffffffffffffffffffffffffffffffffff168473ffffffffffffffffffffffffffffffffffffffff1614806111e357506111e28185610c51565b5b8061122157508373ffffffffffffffffffffffffffffffffffffffff1661120984610533565b73ffffffffffffffffffffffffffffffffffffffff16145b91505092915050565b6040517f08c379a000000000000000000000000000000000000000000000000000000000815260040161125c90612a9b565b60405180910390fd5b6000600660009054906101000a900473ffffffffffffffffffffffffffffffffffffffff16905081600660006101000a81548173ffffffffffffffffffffffffffffffffffffffff021916908373ffffffffffffffffffffffffffffffffffffffff1602179055508173ffffffffffffffffffffffffffffffffffffffff168173ffffffffffffffffffffffffffffffffffffffff167f8be0079c531659141344cd1fd0a4f28419497f9722a3daafe3b4186f6b6457e060405160405180910390a35050565b8173ffffffffffffffffffffffffffffffffffffffff168373ffffffffffffffffffffffffffffffffffffffff1603611399576040517f08c379a000000000000000000000000000000000000000000000000000000000815260040161139090612b07565b60405180910390fd5b80600560008573ffffffffffffffffffffffffffffffffffffffff1673ffffffffffffffffffffffffffffffffffffffff16815260200190815260200160002060008473ffffffffffffffffffffffffffffffffffffffff1673ffffffffffffffffffffffffffffffffffffffff16815260200190815260200160002060006101000a81548160ff0219169083151502179055508173ffffffffffffffffffffffffffffffffffffffff168373ffffffffffffffffffffffffffffffffffffffff167f17307eab39ab6107e8899845ad3d59bd9653f200f220920489ca2b5937696c318360405161148a9190611c1f565b60405180910390a3505050565b6114a284848461122a565b6114ae848484846116e2565b6114ed576040517f08c379a00000000000000000000000000000000000000000000000000000000081526004016114e490612b99565b60405180910390fd5b50505050565b60606000820361153a576040518060400160405280600181526020017f3000000000000000000000000000000000000000000000000000000000000000815250905061164e565b600082905060005b6000821461156c57808061155590612bb9565b915050600a826115659190612c30565b9150611542565b60008167ffffffffffffffff81111561158857611587611e7d565b5b6040519080825280601f01601f1916602001820160405280156115ba5781602001600182028036833780820191505090505b5090505b60008514611647576001826115d39190612c61565b9150600a856115e29190612c95565b60306115ee9190612941565b60f81b81838151811061160457611603612cc6565b5b60200101907effffffffffffffffffffffffffffffffffffffffffffffffffffffffffffff1916908160001a905350600a856116409190612c30565b94506115be565b8093505050505b919050565b60606000820361169a576040518060400160405280600481526020017f307830300000000000000000000000000000000000000000000000000000000081525090506116d3565b600082905060005b600082146116c45780806116b590612bb9565b915050600882901c91506116a2565b6116ce8482611869565b925050505b919050565b505050565b505050565b60006117038473ffffffffffffffffffffffffffffffffffffffff16611aa5565b1561185c578373ffffffffffffffffffffffffffffffffffffffff1663150b7a0261172c610eb2565b8786866040518563ffffffff1660e01b815260040161174e9493929190612d4a565b6020604051808303816000875af192505050801561178a57506040513d601f19601f820116820180604052508101906117879190612dab565b60015b61180c573d80600081146117ba576040519150601f19603f3d011682016040523d82523d6000602084013e6117bf565b606091505b506000815103611804576040517f08c379a00000000000000000000000000000000000000000000000000000000081526004016117fb90612b99565b60405180910390fd5b805181602001fd5b63150b7a0260e01b7bffffffffffffffffffffffffffffffffffffffffffffffffffffffff1916817bffffffffffffffffffffffffffffffffffffffffffffffffffffffff191614915050611861565b600190505b949350505050565b60606000600283600261187c9190612dd8565b6118869190612941565b67ffffffffffffffff81111561189f5761189e611e7d565b5b6040519080825280601f01601f1916602001820160405280156118d15781602001600182028036833780820191505090505b5090507f30000000000000000000000000000000000000000000000000000000000000008160008151811061190957611908612cc6565b5b60200101907effffffffffffffffffffffffffffffffffffffffffffffffffffffffffffff1916908160001a9053507f78000000000000000000000000000000000000000000000000000000000000008160018151811061196d5761196c612cc6565b5b60200101907effffffffffffffffffffffffffffffffffffffffffffffffffffffffffffff1916908160001a905350600060018460026119ad9190612dd8565b6119b79190612941565b90505b6001811115611a57577f3031323334353637383961626364656600000000000000000000000000000000600f8616601081106119f9576119f8612cc6565b5b1a60f81b828281518110611a1057611a0f612cc6565b5b60200101907effffffffffffffffffffffffffffffffffffffffffffffffffffffffffffff1916908160001a905350600485901c945080611a5090612e32565b90506119ba565b5060008414611a9b576040517f08c379a0000000000000000000000000000000000000000000000000000000008152600401611a9290612ea7565b60405180910390fd5b8091505092915050565b6000808273ffffffffffffffffffffffffffffffffffffffff163b119050919050565b828054611ad490612247565b90600052602060002090601f016020900481019282611af65760008555611b3d565b82601f10611b0f57805160ff1916838001178555611b3d565b82800160010185558215611b3d579182015b82811115611b3c578251825591602001919060010190611b21565b5b509050611b4a9190611b4e565b5090565b5b80821115611b67576000816000905550600101611b4f565b5090565b6000604051905090565b600080fd5b600080fd5b60007fffffffff0000000000000000000000000000000000000000000000000000000082169050919050565b611bb481611b7f565b8114611bbf57600080fd5b50565b600081359050611bd181611bab565b92915050565b600060208284031215611bed57611bec611b75565b5b6000611bfb84828501611bc2565b91505092915050565b60008115159050919050565b611c1981611c04565b82525050565b6000602082019050611c346000830184611c10565b92915050565b600081519050919050565b600082825260208201905092915050565b60005b83811015611c74578082015181840152602081019050611c59565b83811115611c83576000848401525b50505050565b6000601f19601f8301169050919050565b6000611ca582611c3a565b611caf8185611c45565b9350611cbf818560208601611c56565b611cc881611c89565b840191505092915050565b60006020820190508181036000830152611ced8184611c9a565b905092915050565b6000819050919050565b611d0881611cf5565b8114611d1357600080fd5b50565b600081359050611d2581611cff565b92915050565b600060208284031215611d4157611d40611b75565b5b6000611d4f84828501611d16565b91505092915050565b600073ffffffffffffffffffffffffffffffffffffffff82169050919050565b6000611d8382611d58565b9050919050565b611d9381611d78565b82525050565b6000602082019050611dae6000830184611d8a565b92915050565b611dbd81611d78565b8114611dc857600080fd5b50565b600081359050611dda81611db4565b92915050565b60008060408385031215611df757611df6611b75565b5b6000611e0585828601611dcb565b9250506020611e1685828601611d16565b9150509250929050565b600080600060608486031215611e3957611e38611b75565b5b6000611e4786828701611dcb565b9350506020611e5886828701611dcb565b9250506040611e6986828701611d16565b9150509250925092565b600080fd5b600080fd5b7f4e487b7100000000000000000000000000000000000000000000000000000000600052604160045260246000fd5b611eb582611c89565b810181811067ffffffffffffffff82111715611ed457611ed3611e7d565b5b80604052505050565b6000611ee7611b6b565b9050611ef38282611eac565b919050565b600067ffffffffffffffff821115611f1357611f12611e7d565b5b611f1c82611c89565b9050602081019050919050565b82818337600083830152505050565b6000611f4b611f4684611ef8565b611edd565b905082815260208101848484011115611f6757611f66611e78565b5b611f72848285611f29565b509392505050565b600082601f830112611f8f57611f8e611e73565b5b8135611f9f848260208601611f38565b91505092915050565b600060208284031215611fbe57611fbd611b75565b5b600082013567ffffffffffffffff811115611fdc57611fdb611b7a565b5b611fe884828501611f7a565b91505092915050565b60006020828403121561200757612006611b75565b5b600061201584828501611dcb565b91505092915050565b61202781611cf5565b82525050565b6000602082019050612042600083018461201e565b92915050565b61205181611c04565b811461205c57600080fd5b50565b60008135905061206e81612048565b92915050565b6000806040838503121561208b5761208a611b75565b5b600061209985828601611dcb565b92505060206120aa8582860161205f565b9150509250929050565b600067ffffffffffffffff8211156120cf576120ce611e7d565b5b6120d882611c89565b9050602081019050919050565b60006120f86120f3846120b4565b611edd565b90508281526020810184848401111561211457612113611e78565b5b61211f848285611f29565b509392505050565b600082601f83011261213c5761213b611e73565b5b813561214c8482602086016120e5565b91505092915050565b6000806000806080858703121561216f5761216e611b75565b5b600061217d87828801611dcb565b945050602061218e87828801611dcb565b935050604061219f87828801611d16565b925050606085013567ffffffffffffffff8111156121c0576121bf611b7a565b5b6121cc87828801612127565b91505092959194509250565b600080604083850312156121ef576121ee611b75565b5b60006121fd85828601611dcb565b925050602061220e85828601611dcb565b9150509250929050565b7f4e487b7100000000000000000000000000000000000000000000000000000000600052602260045260246000fd5b6000600282049050600182168061225f57607f821691505b60208210810361227257612271612218565b5b50919050565b7f4552433732313a20617070726f76656420717565727920666f72206e6f6e657860008201527f697374656e7420746f6b656e0000000000000000000000000000000000000000602082015250565b60006122d4602c83611c45565b91506122df82612278565b604082019050919050565b60006020820190508181036000830152612303816122c7565b9050919050565b7f4552433732313a20617070726f76616c20746f2063757272656e74206f776e6560008201527f7200000000000000000000000000000000000000000000000000000000000000602082015250565b6000612366602183611c45565b91506123718261230a565b604082019050919050565b6000602082019050818103600083015261239581612359565b9050919050565b7f4552433732313a20617070726f76652063616c6c6572206973206e6f74206f7760008201527f6e6572206e6f7220617070726f76656420666f7220616c6c0000000000000000602082015250565b60006123f8603883611c45565b91506124038261239c565b604082019050919050565b60006020820190508181036000830152612427816123eb565b9050919050565b7f4552433732313a207472616e736665722063616c6c6572206973206e6f74206f60008201527f776e6572206e6f7220617070726f766564000000000000000000000000000000602082015250565b600061248a603183611c45565b91506124958261242e565b604082019050919050565b600060208201905081810360008301526124b98161247d565b9050919050565b7f4552433732313a206f776e657220717565727920666f72206e6f6e657869737460008201527f656e7420746f6b656e0000000000000000000000000000000000000000000000602082015250565b600061251c602983611c45565b9150612527826124c0565b604082019050919050565b6000602082019050818103600083015261254b8161250f565b9050919050565b7f4f776e61626c653a2063616c6c6572206973206e6f7420746865206f776e6572600082015250565b6000612588602083611c45565b915061259382612552565b602082019050919050565b600060208201905081810360008301526125b78161257b565b9050919050565b7f4552433732313a2062616c616e636520717565727920666f7220746865207a6560008201527f726f206164647265737300000000000000000000000000000000000000000000602082015250565b600061261a602a83611c45565b9150612625826125be565b604082019050919050565b600060208201905081810360008301526126498161260d565b9050919050565b600081905092915050565b60008190508160005260206000209050919050565b6000815461267d81612247565b6126878186612650565b945060018216600081146126a257600181146126b3576126e6565b60ff198316865281860193506126e6565b6126bc8561265b565b60005b838110156126de578154818901526001820191506020810190506126bf565b838801955050505b50505092915050565b60006126fa82611c3a565b6127048185612650565b9350612714818560208601611c56565b80840191505092915050565b7f2f00000000000000000000000000000000000000000000000000000000000000600082015250565b6000612756600183612650565b915061276182612720565b600182019050919050565b60006127788286612670565b915061278482856126ef565b915061278f82612749565b915061279b82846126ef565b9150819050949350505050565b7f4f776e61626c653a206e6577206f776e657220697320746865207a65726f206160008201527f6464726573730000000000000000000000000000000000000000000000000000602082015250565b6000612804602683611c45565b915061280f826127a8565b604082019050919050565b60006020820190508181036000830152612833816127f7565b9050919050565b7f4552433732313a206d696e7420746f20746865207a65726f2061646472657373600082015250565b6000612870602083611c45565b915061287b8261283a565b602082019050919050565b6000602082019050818103600083015261289f81612863565b9050919050565b7f4552433732313a20746f6b656e20616c7265616479206d696e74656400000000600082015250565b60006128dc601c83611c45565b91506128e7826128a6565b602082019050919050565b6000602082019050818103600083015261290b816128cf565b9050919050565b7f4e487b7100000000000000000000000000000000000000000000000000000000600052601160045260246000fd5b600061294c82611cf5565b915061295783611cf5565b9250827fffffffffffffffffffffffffffffffffffffffffffffffffffffffffffffffff0382111561298c5761298b612912565b5b828201905092915050565b7f4552433732313a206f70657261746f7220717565727920666f72206e6f6e657860008201527f697374656e7420746f6b656e0000000000000000000000000000000000000000602082015250565b60006129f3602c83611c45565b91506129fe82612997565b604082019050919050565b60006020820190508181036000830152612a22816129e6565b9050919050565b7f4d616769634d6972726f724e46543a206d6972726f726564204e46547320636160008201527f6e6e6f74206265207472616e7366657272656400000000000000000000000000602082015250565b6000612a85603383611c45565b9150612a9082612a29565b604082019050919050565b60006020820190508181036000830152612ab481612a78565b9050919050565b7f4552433732313a20617070726f766520746f2063616c6c657200000000000000600082015250565b6000612af1601983611c45565b9150612afc82612abb565b602082019050919050565b60006020820190508181036000830152612b2081612ae4565b9050919050565b7f4552433732313a207472616e7366657220746f206e6f6e20455243373231526560008201527f63656976657220696d706c656d656e7465720000000000000000000000000000602082015250565b6000612b83603283611c45565b9150612b8e82612b27565b604082019050919050565b60006020820190508181036000830152612bb281612b76565b9050919050565b6000612bc482611cf5565b91507fffffffffffffffffffffffffffffffffffffffffffffffffffffffffffffffff8203612bf657612bf5612912565b5b600182019050919050565b7f4e487b7100000000000000000000000000000000000000000000000000000000600052601260045260246000fd5b6000612c3b82611cf5565b9150612c4683611cf5565b925082612c5657612c55612c01565b5b828204905092915050565b6000612c6c82611cf5565b9150612c7783611cf5565b925082821015612c8a57612c89612912565b5b828203905092915050565b6000612ca082611cf5565b9150612cab83611cf5565b925082612cbb57612cba612c01565b5b828206905092915050565b7f4e487b7100000000000000000000000000000000000000000000000000000000600052603260045260246000fd5b600081519050919050565b600082825260208201905092915050565b6000612d1c82612cf5565b612d268185612d00565b9350612d36818560208601611c56565b612d3f81611c89565b840191505092915050565b6000608082019050612d5f6000830187611d8a565b612d6c6020830186611d8a565b612d79604083018561201e565b8181036060830152612d8b8184612d11565b905095945050505050565b600081519050612da581611bab565b92915050565b600060208284031215612dc157612dc0611b75565b5b6000612dcf84828501612d96565b91505092915050565b6000612de382611cf5565b9150612dee83611cf5565b9250817fffffffffffffffffffffffffffffffffffffffffffffffffffffffffffffffff0483118215151615612e2757612e26612912565b5b828202905092915050565b6000612e3d82611cf5565b915060008203612e5057612e4f612912565b5b600182039050919050565b7f537472696e67733a20686578206c656e67746820696e73756666696369656e74600082015250565b6000612e91602083611c45565b9150612e9c82612e5b565b602082019050919050565b60006020820190508181036000830152612ec081612e84565b905091905056fea264697066735822122002052d95cf379ab6c01ea780e6e436980f945775aa766ecf69b42d87cea4054864736f6c634300080d0033",
  "devdoc": {
    "kind": "dev",
    "methods": {
      "approve(address,uint256)": {
        "details": "See {IERC721-approve}."
      },
      "balanceOf(address)": {
        "details": "See {IERC721-balanceOf}."
      },
      "constructor": {
        "params": {
          "_api": "URI for the MagicMirror backend server.",
          "_chain": "Chain ID for the chain to mirror NFTs on."
        }
      },
      "getApproved(uint256)": {
        "details": "See {IERC721-getApproved}."
      },
      "isApprovedForAll(address,address)": {
        "details": "See {IERC721-isApprovedForAll}."
      },
      "name()": {
        "details": "See {IERC721Metadata-name}."
      },
      "owner()": {
        "details": "Returns the address of the current owner."
      },
      "ownerOf(uint256)": {
        "details": "See {IERC721-ownerOf}."
      },
      "renounceOwnership()": {
        "details": "Leaves the contract without owner. It will not be possible to call `onlyOwner` functions anymore. Can only be called by the current owner. NOTE: Renouncing ownership will leave the contract without an owner, thereby removing any functionality that is only available to the owner."
      },
      "safeTransferFrom(address,address,uint256)": {
        "details": "See {IERC721-safeTransferFrom}."
      },
      "safeTransferFrom(address,address,uint256,bytes)": {
        "details": "See {IERC721-safeTransferFrom}."
      },
      "setAPI(string)": {
        "params": {
          "_api": "API for the MagicMirror backend server."
        }
      },
      "setApprovalForAll(address,bool)": {
        "details": "See {IERC721-setApprovalForAll}."
      },
      "supportsInterface(bytes4)": {
        "details": "See {IERC165-supportsInterface}."
      },
      "symbol()": {
        "details": "See {IERC721Metadata-symbol}."
      },
      "tokenURI(uint256)": {
        "params": {
          "_tokenId": "ID of the token to retrieve a URI for."
        },
        "returns": {
          "_0": "URI for the given token."
        }
      },
      "transferFrom(address,address,uint256)": {
        "details": "See {IERC721-transferFrom}."
      },
      "transferOwnership(address)": {
        "details": "Transfers ownership of the contract to a new account (`newOwner`). Can only be called by the current owner."
      }
    },
    "title": "MagicMirrorNFT",
    "version": 1
  },
  "userdoc": {
    "kind": "user",
    "methods": {
      "api()": {
        "notice": "URI for the MagicMirror backend server."
      },
      "chain()": {
        "notice": "Chain ID for the chain to mirror NFTs on."
      },
      "mint()": {
        "notice": "Mints a new MagicMirror NFT."
      },
      "setAPI(string)": {
        "notice": "Allows the owner to set the API URL."
      },
      "tokenURI(uint256)": {
        "notice": "Retrieves the URI for a given token."
      }
    },
    "notice": "MagicMirrorNFT is a contract for mirroring NFTs on other networks. MagicMirror is meant         to be used in conjunction with a trusted MagicMirror backend. It's possible to use the         same backend to serve NFTs for multiple different networks by specifying a chain ID.",
    "version": 1
  },
  "storageLayout": {
    "storage": [
      {
        "astId": 130,
        "contract": "contracts/MagicMirrorNFT.sol:MagicMirrorNFT",
        "label": "_name",
        "offset": 0,
        "slot": "0",
        "type": "t_string_storage"
      },
      {
        "astId": 132,
        "contract": "contracts/MagicMirrorNFT.sol:MagicMirrorNFT",
        "label": "_symbol",
        "offset": 0,
        "slot": "1",
        "type": "t_string_storage"
      },
      {
        "astId": 136,
        "contract": "contracts/MagicMirrorNFT.sol:MagicMirrorNFT",
        "label": "_owners",
        "offset": 0,
        "slot": "2",
        "type": "t_mapping(t_uint256,t_address)"
      },
      {
        "astId": 140,
        "contract": "contracts/MagicMirrorNFT.sol:MagicMirrorNFT",
        "label": "_balances",
        "offset": 0,
        "slot": "3",
        "type": "t_mapping(t_address,t_uint256)"
      },
      {
        "astId": 144,
        "contract": "contracts/MagicMirrorNFT.sol:MagicMirrorNFT",
        "label": "_tokenApprovals",
        "offset": 0,
        "slot": "4",
        "type": "t_mapping(t_uint256,t_address)"
      },
      {
        "astId": 150,
        "contract": "contracts/MagicMirrorNFT.sol:MagicMirrorNFT",
        "label": "_operatorApprovals",
        "offset": 0,
        "slot": "5",
        "type": "t_mapping(t_address,t_mapping(t_address,t_bool))"
      },
      {
        "astId": 7,
        "contract": "contracts/MagicMirrorNFT.sol:MagicMirrorNFT",
        "label": "_owner",
        "offset": 0,
        "slot": "6",
        "type": "t_address"
      },
      {
        "astId": 1703,
        "contract": "contracts/MagicMirrorNFT.sol:MagicMirrorNFT",
        "label": "api",
        "offset": 0,
        "slot": "7",
        "type": "t_string_storage"
      }
    ],
    "types": {
      "t_address": {
        "encoding": "inplace",
        "label": "address",
        "numberOfBytes": "20"
      },
      "t_bool": {
        "encoding": "inplace",
        "label": "bool",
        "numberOfBytes": "1"
      },
      "t_mapping(t_address,t_bool)": {
        "encoding": "mapping",
        "key": "t_address",
        "label": "mapping(address => bool)",
        "numberOfBytes": "32",
        "value": "t_bool"
      },
      "t_mapping(t_address,t_mapping(t_address,t_bool))": {
        "encoding": "mapping",
        "key": "t_address",
        "label": "mapping(address => mapping(address => bool))",
        "numberOfBytes": "32",
        "value": "t_mapping(t_address,t_bool)"
      },
      "t_mapping(t_address,t_uint256)": {
        "encoding": "mapping",
        "key": "t_address",
        "label": "mapping(address => uint256)",
        "numberOfBytes": "32",
        "value": "t_uint256"
      },
      "t_mapping(t_uint256,t_address)": {
        "encoding": "mapping",
        "key": "t_uint256",
        "label": "mapping(uint256 => address)",
        "numberOfBytes": "32",
        "value": "t_address"
      },
      "t_string_storage": {
        "encoding": "bytes",
        "label": "string",
        "numberOfBytes": "32"
      },
      "t_uint256": {
        "encoding": "inplace",
        "label": "uint256",
        "numberOfBytes": "32"
      }
    }
  }
}