{
  "address": "0x52D4E86F1B35FccF184773862D4C7e6202Ae35fE",
  "abi": [
    {
      "inputs": [
        {
          "internalType": "string",
          "name": "_api",
          "type": "string"
        },
        {
          "internalType": "uint256",
          "name": "_chain",
          "type": "uint256"
        }
      ],
      "stateMutability": "nonpayable",
      "type": "constructor"
    },
    {
      "anonymous": false,
      "inputs": [
        {
          "indexed": true,
          "internalType": "address",
          "name": "owner",
          "type": "address"
        },
        {
          "indexed": true,
          "internalType": "address",
          "name": "approved",
          "type": "address"
        },
        {
          "indexed": true,
          "internalType": "uint256",
          "name": "tokenId",
          "type": "uint256"
        }
      ],
      "name": "Approval",
      "type": "event"
    },
    {
      "anonymous": false,
      "inputs": [
        {
          "indexed": true,
          "internalType": "address",
          "name": "owner",
          "type": "address"
        },
        {
          "indexed": true,
          "internalType": "address",
          "name": "operator",
          "type": "address"
        },
        {
          "indexed": false,
          "internalType": "bool",
          "name": "approved",
          "type": "bool"
        }
      ],
      "name": "ApprovalForAll",
      "type": "event"
    },
    {
      "anonymous": false,
      "inputs": [
        {
          "indexed": true,
          "internalType": "address",
          "name": "from",
          "type": "address"
        },
        {
          "indexed": true,
          "internalType": "address",
          "name": "to",
          "type": "address"
        },
        {
          "indexed": true,
          "internalType": "uint256",
          "name": "tokenId",
          "type": "uint256"
        }
      ],
      "name": "Transfer",
      "type": "event"
    },
    {
      "inputs": [],
      "name": "api",
      "outputs": [
        {
          "internalType": "string",
          "name": "",
          "type": "string"
        }
      ],
      "stateMutability": "view",
      "type": "function"
    },
    {
      "inputs": [
        {
          "internalType": "address",
          "name": "to",
          "type": "address"
        },
        {
          "internalType": "uint256",
          "name": "tokenId",
          "type": "uint256"
        }
      ],
      "name": "approve",
      "outputs": [],
      "stateMutability": "nonpayable",
      "type": "function"
    },
    {
      "inputs": [
        {
          "internalType": "address",
          "name": "owner",
          "type": "address"
        }
      ],
      "name": "balanceOf",
      "outputs": [
        {
          "internalType": "uint256",
          "name": "",
          "type": "uint256"
        }
      ],
      "stateMutability": "view",
      "type": "function"
    },
    {
      "inputs": [],
      "name": "chain",
      "outputs": [
        {
          "internalType": "uint256",
          "name": "",
          "type": "uint256"
        }
      ],
      "stateMutability": "view",
      "type": "function"
    },
    {
      "inputs": [
        {
          "internalType": "uint256",
          "name": "tokenId",
          "type": "uint256"
        }
      ],
      "name": "getApproved",
      "outputs": [
        {
          "internalType": "address",
          "name": "",
          "type": "address"
        }
      ],
      "stateMutability": "view",
      "type": "function"
    },
    {
      "inputs": [
        {
          "internalType": "address",
          "name": "owner",
          "type": "address"
        },
        {
          "internalType": "address",
          "name": "operator",
          "type": "address"
        }
      ],
      "name": "isApprovedForAll",
      "outputs": [
        {
          "internalType": "bool",
          "name": "",
          "type": "bool"
        }
      ],
      "stateMutability": "view",
      "type": "function"
    },
    {
      "inputs": [],
      "name": "mint",
      "outputs": [],
      "stateMutability": "nonpayable",
      "type": "function"
    },
    {
      "inputs": [],
      "name": "name",
      "outputs": [
        {
          "internalType": "string",
          "name": "",
          "type": "string"
        }
      ],
      "stateMutability": "view",
      "type": "function"
    },
    {
      "inputs": [
        {
          "internalType": "uint256",
          "name": "tokenId",
          "type": "uint256"
        }
      ],
      "name": "ownerOf",
      "outputs": [
        {
          "internalType": "address",
          "name": "",
          "type": "address"
        }
      ],
      "stateMutability": "view",
      "type": "function"
    },
    {
      "inputs": [
        {
          "internalType": "address",
          "name": "from",
          "type": "address"
        },
        {
          "internalType": "address",
          "name": "to",
          "type": "address"
        },
        {
          "internalType": "uint256",
          "name": "tokenId",
          "type": "uint256"
        }
      ],
      "name": "safeTransferFrom",
      "outputs": [],
      "stateMutability": "nonpayable",
      "type": "function"
    },
    {
      "inputs": [
        {
          "internalType": "address",
          "name": "from",
          "type": "address"
        },
        {
          "internalType": "address",
          "name": "to",
          "type": "address"
        },
        {
          "internalType": "uint256",
          "name": "tokenId",
          "type": "uint256"
        },
        {
          "internalType": "bytes",
          "name": "_data",
          "type": "bytes"
        }
      ],
      "name": "safeTransferFrom",
      "outputs": [],
      "stateMutability": "nonpayable",
      "type": "function"
    },
    {
      "inputs": [
        {
          "internalType": "address",
          "name": "operator",
          "type": "address"
        },
        {
          "internalType": "bool",
          "name": "approved",
          "type": "bool"
        }
      ],
      "name": "setApprovalForAll",
      "outputs": [],
      "stateMutability": "nonpayable",
      "type": "function"
    },
    {
      "inputs": [
        {
          "internalType": "bytes4",
          "name": "interfaceId",
          "type": "bytes4"
        }
      ],
      "name": "supportsInterface",
      "outputs": [
        {
          "internalType": "bool",
          "name": "",
          "type": "bool"
        }
      ],
      "stateMutability": "view",
      "type": "function"
    },
    {
      "inputs": [],
      "name": "symbol",
      "outputs": [
        {
          "internalType": "string",
          "name": "",
          "type": "string"
        }
      ],
      "stateMutability": "view",
      "type": "function"
    },
    {
      "inputs": [
        {
          "internalType": "uint256",
          "name": "_tokenId",
          "type": "uint256"
        }
      ],
      "name": "tokenURI",
      "outputs": [
        {
          "internalType": "string",
          "name": "",
          "type": "string"
        }
      ],
      "stateMutability": "view",
      "type": "function"
    },
    {
      "inputs": [
        {
          "internalType": "address",
          "name": "from",
          "type": "address"
        },
        {
          "internalType": "address",
          "name": "to",
          "type": "address"
        },
        {
          "internalType": "uint256",
          "name": "tokenId",
          "type": "uint256"
        }
      ],
      "name": "transferFrom",
      "outputs": [],
      "stateMutability": "nonpayable",
      "type": "function"
    }
  ],
  "transactionHash": "0x24c0868e300e261a3fbf7208a1b069c0d03224587845008cd16a368e2e93ce64",
  "args": [
    "https://opfp.art",
    10
  ],
  "numDeployments": 1,
  "solcInputHash": "14da6ec21e5ce6034472e0165eec8609",
  "bytecode": "0x60a06040523480156200001157600080fd5b5060405162002dad38038062002dad833981810160405281019062000037919062000388565b6040518060400160405280601081526020017f4d61676963204d6972726f72204e4654000000000000000000000000000000008152506040518060400160405280600581526020017f4d4d4e46540000000000000000000000000000000000000000000000000000008152508160009080519060200190620000bb92919062000100565b508060019080519060200190620000d492919062000100565b5050508160069080519060200190620000ef92919062000100565b508060808181525050505062000452565b8280546200010e906200041d565b90600052602060002090601f0160209004810192826200013257600085556200017e565b82601f106200014d57805160ff19168380011785556200017e565b828001600101855582156200017e579182015b828111156200017d57825182559160200191906001019062000160565b5b5090506200018d919062000191565b5090565b5b80821115620001ac57600081600090555060010162000192565b5090565b6000604051905090565b600080fd5b600080fd5b600080fd5b600080fd5b6000601f19601f8301169050919050565b7f4e487b7100000000000000000000000000000000000000000000000000000000600052604160045260246000fd5b6200021982620001ce565b810181811067ffffffffffffffff821117156200023b576200023a620001df565b5b80604052505050565b600062000250620001b0565b90506200025e82826200020e565b919050565b600067ffffffffffffffff821115620002815762000280620001df565b5b6200028c82620001ce565b9050602081019050919050565b60005b83811015620002b95780820151818401526020810190506200029c565b83811115620002c9576000848401525b50505050565b6000620002e6620002e08462000263565b62000244565b905082815260208101848484011115620003055762000304620001c9565b5b6200031284828562000299565b509392505050565b600082601f830112620003325762000331620001c4565b5b815162000344848260208601620002cf565b91505092915050565b6000819050919050565b62000362816200034d565b81146200036e57600080fd5b50565b600081519050620003828162000357565b92915050565b60008060408385031215620003a257620003a1620001ba565b5b600083015167ffffffffffffffff811115620003c357620003c2620001bf565b5b620003d1858286016200031a565b9250506020620003e48582860162000371565b9150509250929050565b7f4e487b7100000000000000000000000000000000000000000000000000000000600052602260045260246000fd5b600060028204905060018216806200043657607f821691505b6020821081036200044c576200044b620003ee565b5b50919050565b6080516129386200047560003960008181610959015261098401526129386000f3fe608060405234801561001057600080fd5b50600436106101005760003560e01c806370a0823111610097578063c763e5a111610066578063c763e5a114610297578063c87b56dd146102b5578063d2c18e0b146102e5578063e985e9c51461030357610100565b806370a082311461021157806395d89b4114610241578063a22cb4651461025f578063b88d4fde1461027b57610100565b80631249c58b116100d35780631249c58b1461019f57806323b872dd146101a957806342842e0e146101c55780636352211e146101e157610100565b806301ffc9a71461010557806306fdde0314610135578063081812fc14610153578063095ea7b314610183575b600080fd5b61011f600480360381019061011a91906117a3565b610333565b60405161012c91906117eb565b60405180910390f35b61013d610415565b60405161014a919061189f565b60405180910390f35b61016d600480360381019061016891906118f7565b6104a7565b60405161017a9190611965565b60405180910390f35b61019d600480360381019061019891906119ac565b61052c565b005b6101a7610643565b005b6101c360048036038101906101be91906119ec565b610665565b005b6101df60048036038101906101da91906119ec565b6106c5565b005b6101fb60048036038101906101f691906118f7565b6106e5565b6040516102089190611965565b60405180910390f35b61022b60048036038101906102269190611a3f565b610796565b6040516102389190611a7b565b60405180910390f35b61024961084d565b604051610256919061189f565b60405180910390f35b61027960048036038101906102749190611ac2565b6108df565b005b61029560048036038101906102909190611c37565b6108f5565b005b61029f610957565b6040516102ac9190611a7b565b60405180910390f35b6102cf60048036038101906102ca91906118f7565b61097b565b6040516102dc919061189f565b60405180910390f35b6102ed6109ef565b6040516102fa919061189f565b60405180910390f35b61031d60048036038101906103189190611cba565b610a7d565b60405161032a91906117eb565b60405180910390f35b60007f80ac58cd000000000000000000000000000000000000000000000000000000007bffffffffffffffffffffffffffffffffffffffffffffffffffffffff1916827bffffffffffffffffffffffffffffffffffffffffffffffffffffffff191614806103fe57507f5b5e139f000000000000000000000000000000000000000000000000000000007bffffffffffffffffffffffffffffffffffffffffffffffffffffffff1916827bffffffffffffffffffffffffffffffffffffffffffffffffffffffff1916145b8061040e575061040d82610b11565b5b9050919050565b60606000805461042490611d29565b80601f016020809104026020016040519081016040528092919081815260200182805461045090611d29565b801561049d5780601f106104725761010080835404028352916020019161049d565b820191906000526020600020905b81548152906001019060200180831161048057829003601f168201915b5050505050905090565b60006104b282610b7b565b6104f1576040517f08c379a00000000000000000000000000000000000000000000000000000000081526004016104e890611dcc565b60405180910390fd5b6004600083815260200190815260200160002060009054906101000a900473ffffffffffffffffffffffffffffffffffffffff169050919050565b6000610537826106e5565b90508073ffffffffffffffffffffffffffffffffffffffff168373ffffffffffffffffffffffffffffffffffffffff16036105a7576040517f08c379a000000000000000000000000000000000000000000000000000000000815260040161059e90611e5e565b60405180910390fd5b8073ffffffffffffffffffffffffffffffffffffffff166105c6610be7565b73ffffffffffffffffffffffffffffffffffffffff1614806105f557506105f4816105ef610be7565b610a7d565b5b610634576040517f08c379a000000000000000000000000000000000000000000000000000000000815260040161062b90611ef0565b60405180910390fd5b61063e8383610bef565b505050565b610663333373ffffffffffffffffffffffffffffffffffffffff16610ca8565b565b610676610670610be7565b82610e81565b6106b5576040517f08c379a00000000000000000000000000000000000000000000000000000000081526004016106ac90611f82565b60405180910390fd5b6106c0838383610f5f565b505050565b6106e0838383604051806020016040528060008152506108f5565b505050565b6000806002600084815260200190815260200160002060009054906101000a900473ffffffffffffffffffffffffffffffffffffffff169050600073ffffffffffffffffffffffffffffffffffffffff168173ffffffffffffffffffffffffffffffffffffffff160361078d576040517f08c379a000000000000000000000000000000000000000000000000000000000815260040161078490612014565b60405180910390fd5b80915050919050565b60008073ffffffffffffffffffffffffffffffffffffffff168273ffffffffffffffffffffffffffffffffffffffff1603610806576040517f08c379a00000000000000000000000000000000000000000000000000000000081526004016107fd906120a6565b60405180910390fd5b600360008373ffffffffffffffffffffffffffffffffffffffff1673ffffffffffffffffffffffffffffffffffffffff168152602001908152602001600020549050919050565b60606001805461085c90611d29565b80601f016020809104026020016040519081016040528092919081815260200182805461088890611d29565b80156108d55780601f106108aa576101008083540402835291602001916108d5565b820191906000526020600020905b8154815290600101906020018083116108b857829003601f168201915b5050505050905090565b6108f16108ea610be7565b8383610f9a565b5050565b610906610900610be7565b83610e81565b610945576040517f08c379a000000000000000000000000000000000000000000000000000000000815260040161093c90611f82565b60405180910390fd5b61095184848484611106565b50505050565b7f000000000000000000000000000000000000000000000000000000000000000081565b606060066109a87f0000000000000000000000000000000000000000000000000000000000000000611162565b6109c78473ffffffffffffffffffffffffffffffffffffffff166112c2565b6040516020016109d99392919061222e565b6040516020818303038152906040529050919050565b600680546109fc90611d29565b80601f0160208091040260200160405190810160405280929190818152602001828054610a2890611d29565b8015610a755780601f10610a4a57610100808354040283529160200191610a75565b820191906000526020600020905b815481529060010190602001808311610a5857829003601f168201915b505050505081565b6000600560008473ffffffffffffffffffffffffffffffffffffffff1673ffffffffffffffffffffffffffffffffffffffff16815260200190815260200160002060008373ffffffffffffffffffffffffffffffffffffffff1673ffffffffffffffffffffffffffffffffffffffff16815260200190815260200160002060009054906101000a900460ff16905092915050565b60007f01ffc9a7000000000000000000000000000000000000000000000000000000007bffffffffffffffffffffffffffffffffffffffffffffffffffffffff1916827bffffffffffffffffffffffffffffffffffffffffffffffffffffffff1916149050919050565b60008073ffffffffffffffffffffffffffffffffffffffff166002600084815260200190815260200160002060009054906101000a900473ffffffffffffffffffffffffffffffffffffffff1673ffffffffffffffffffffffffffffffffffffffff1614159050919050565b600033905090565b816004600083815260200190815260200160002060006101000a81548173ffffffffffffffffffffffffffffffffffffffff021916908373ffffffffffffffffffffffffffffffffffffffff160217905550808273ffffffffffffffffffffffffffffffffffffffff16610c62836106e5565b73ffffffffffffffffffffffffffffffffffffffff167f8c5be1e5ebec7d5bd14f71427d1e84f3dd0314c0f7b2291e5b200ac8c7c3b92560405160405180910390a45050565b600073ffffffffffffffffffffffffffffffffffffffff168273ffffffffffffffffffffffffffffffffffffffff1603610d17576040517f08c379a0000000000000000000000000000000000000000000000000000000008152600401610d0e906122c1565b60405180910390fd5b610d2081610b7b565b15610d60576040517f08c379a0000000000000000000000000000000000000000000000000000000008152600401610d579061232d565b60405180910390fd5b610d6c60008383611347565b6001600360008473ffffffffffffffffffffffffffffffffffffffff1673ffffffffffffffffffffffffffffffffffffffff1681526020019081526020016000206000828254610dbc919061237c565b92505081905550816002600083815260200190815260200160002060006101000a81548173ffffffffffffffffffffffffffffffffffffffff021916908373ffffffffffffffffffffffffffffffffffffffff160217905550808273ffffffffffffffffffffffffffffffffffffffff16600073ffffffffffffffffffffffffffffffffffffffff167fddf252ad1be2c89b69c2b068fc378daa952ba7f163c4a11628f55a4df523b3ef60405160405180910390a4610e7d6000838361134c565b5050565b6000610e8c82610b7b565b610ecb576040517f08c379a0000000000000000000000000000000000000000000000000000000008152600401610ec290612444565b60405180910390fd5b6000610ed6836106e5565b90508073ffffffffffffffffffffffffffffffffffffffff168473ffffffffffffffffffffffffffffffffffffffff161480610f185750610f178185610a7d565b5b80610f5657508373ffffffffffffffffffffffffffffffffffffffff16610f3e846104a7565b73ffffffffffffffffffffffffffffffffffffffff16145b91505092915050565b6040517f08c379a0000000000000000000000000000000000000000000000000000000008152600401610f91906124d6565b60405180910390fd5b8173ffffffffffffffffffffffffffffffffffffffff168373ffffffffffffffffffffffffffffffffffffffff1603611008576040517f08c379a0000000000000000000000000000000000000000000000000000000008152600401610fff90612542565b60405180910390fd5b80600560008573ffffffffffffffffffffffffffffffffffffffff1673ffffffffffffffffffffffffffffffffffffffff16815260200190815260200160002060008473ffffffffffffffffffffffffffffffffffffffff1673ffffffffffffffffffffffffffffffffffffffff16815260200190815260200160002060006101000a81548160ff0219169083151502179055508173ffffffffffffffffffffffffffffffffffffffff168373ffffffffffffffffffffffffffffffffffffffff167f17307eab39ab6107e8899845ad3d59bd9653f200f220920489ca2b5937696c31836040516110f991906117eb565b60405180910390a3505050565b611111848484610f5f565b61111d84848484611351565b61115c576040517f08c379a0000000000000000000000000000000000000000000000000000000008152600401611153906125d4565b60405180910390fd5b50505050565b6060600082036111a9576040518060400160405280600181526020017f300000000000000000000000000000000000000000000000000000000000000081525090506112bd565b600082905060005b600082146111db5780806111c4906125f4565b915050600a826111d4919061266b565b91506111b1565b60008167ffffffffffffffff8111156111f7576111f6611b0c565b5b6040519080825280601f01601f1916602001820160405280156112295781602001600182028036833780820191505090505b5090505b600085146112b657600182611242919061269c565b9150600a8561125191906126d0565b603061125d919061237c565b60f81b81838151811061127357611272612701565b5b60200101907effffffffffffffffffffffffffffffffffffffffffffffffffffffffffffff1916908160001a905350600a856112af919061266b565b945061122d565b8093505050505b919050565b606060008203611309576040518060400160405280600481526020017f30783030000000000000000000000000000000000000000000000000000000008152509050611342565b600082905060005b60008214611333578080611324906125f4565b915050600882901c9150611311565b61133d84826114d8565b925050505b919050565b505050565b505050565b60006113728473ffffffffffffffffffffffffffffffffffffffff16611714565b156114cb578373ffffffffffffffffffffffffffffffffffffffff1663150b7a0261139b610be7565b8786866040518563ffffffff1660e01b81526004016113bd9493929190612785565b6020604051808303816000875af19250505080156113f957506040513d601f19601f820116820180604052508101906113f691906127e6565b60015b61147b573d8060008114611429576040519150601f19603f3d011682016040523d82523d6000602084013e61142e565b606091505b506000815103611473576040517f08c379a000000000000000000000000000000000000000000000000000000000815260040161146a906125d4565b60405180910390fd5b805181602001fd5b63150b7a0260e01b7bffffffffffffffffffffffffffffffffffffffffffffffffffffffff1916817bffffffffffffffffffffffffffffffffffffffffffffffffffffffff1916149150506114d0565b600190505b949350505050565b6060600060028360026114eb9190612813565b6114f5919061237c565b67ffffffffffffffff81111561150e5761150d611b0c565b5b6040519080825280601f01601f1916602001820160405280156115405781602001600182028036833780820191505090505b5090507f30000000000000000000000000000000000000000000000000000000000000008160008151811061157857611577612701565b5b60200101907effffffffffffffffffffffffffffffffffffffffffffffffffffffffffffff1916908160001a9053507f7800000000000000000000000000000000000000000000000000000000000000816001815181106115dc576115db612701565b5b60200101907effffffffffffffffffffffffffffffffffffffffffffffffffffffffffffff1916908160001a9053506000600184600261161c9190612813565b611626919061237c565b90505b60018111156116c6577f3031323334353637383961626364656600000000000000000000000000000000600f86166010811061166857611667612701565b5b1a60f81b82828151811061167f5761167e612701565b5b60200101907effffffffffffffffffffffffffffffffffffffffffffffffffffffffffffff1916908160001a905350600485901c9450806116bf9061286d565b9050611629565b506000841461170a576040517f08c379a0000000000000000000000000000000000000000000000000000000008152600401611701906128e2565b60405180910390fd5b8091505092915050565b6000808273ffffffffffffffffffffffffffffffffffffffff163b119050919050565b6000604051905090565b600080fd5b600080fd5b60007fffffffff0000000000000000000000000000000000000000000000000000000082169050919050565b6117808161174b565b811461178b57600080fd5b50565b60008135905061179d81611777565b92915050565b6000602082840312156117b9576117b8611741565b5b60006117c78482850161178e565b91505092915050565b60008115159050919050565b6117e5816117d0565b82525050565b600060208201905061180060008301846117dc565b92915050565b600081519050919050565b600082825260208201905092915050565b60005b83811015611840578082015181840152602081019050611825565b8381111561184f576000848401525b50505050565b6000601f19601f8301169050919050565b600061187182611806565b61187b8185611811565b935061188b818560208601611822565b61189481611855565b840191505092915050565b600060208201905081810360008301526118b98184611866565b905092915050565b6000819050919050565b6118d4816118c1565b81146118df57600080fd5b50565b6000813590506118f1816118cb565b92915050565b60006020828403121561190d5761190c611741565b5b600061191b848285016118e2565b91505092915050565b600073ffffffffffffffffffffffffffffffffffffffff82169050919050565b600061194f82611924565b9050919050565b61195f81611944565b82525050565b600060208201905061197a6000830184611956565b92915050565b61198981611944565b811461199457600080fd5b50565b6000813590506119a681611980565b92915050565b600080604083850312156119c3576119c2611741565b5b60006119d185828601611997565b92505060206119e2858286016118e2565b9150509250929050565b600080600060608486031215611a0557611a04611741565b5b6000611a1386828701611997565b9350506020611a2486828701611997565b9250506040611a35868287016118e2565b9150509250925092565b600060208284031215611a5557611a54611741565b5b6000611a6384828501611997565b91505092915050565b611a75816118c1565b82525050565b6000602082019050611a906000830184611a6c565b92915050565b611a9f816117d0565b8114611aaa57600080fd5b50565b600081359050611abc81611a96565b92915050565b60008060408385031215611ad957611ad8611741565b5b6000611ae785828601611997565b9250506020611af885828601611aad565b9150509250929050565b600080fd5b600080fd5b7f4e487b7100000000000000000000000000000000000000000000000000000000600052604160045260246000fd5b611b4482611855565b810181811067ffffffffffffffff82111715611b6357611b62611b0c565b5b80604052505050565b6000611b76611737565b9050611b828282611b3b565b919050565b600067ffffffffffffffff821115611ba257611ba1611b0c565b5b611bab82611855565b9050602081019050919050565b82818337600083830152505050565b6000611bda611bd584611b87565b611b6c565b905082815260208101848484011115611bf657611bf5611b07565b5b611c01848285611bb8565b509392505050565b600082601f830112611c1e57611c1d611b02565b5b8135611c2e848260208601611bc7565b91505092915050565b60008060008060808587031215611c5157611c50611741565b5b6000611c5f87828801611997565b9450506020611c7087828801611997565b9350506040611c81878288016118e2565b925050606085013567ffffffffffffffff811115611ca257611ca1611746565b5b611cae87828801611c09565b91505092959194509250565b60008060408385031215611cd157611cd0611741565b5b6000611cdf85828601611997565b9250506020611cf085828601611997565b9150509250929050565b7f4e487b7100000000000000000000000000000000000000000000000000000000600052602260045260246000fd5b60006002820490506001821680611d4157607f821691505b602082108103611d5457611d53611cfa565b5b50919050565b7f4552433732313a20617070726f76656420717565727920666f72206e6f6e657860008201527f697374656e7420746f6b656e0000000000000000000000000000000000000000602082015250565b6000611db6602c83611811565b9150611dc182611d5a565b604082019050919050565b60006020820190508181036000830152611de581611da9565b9050919050565b7f4552433732313a20617070726f76616c20746f2063757272656e74206f776e6560008201527f7200000000000000000000000000000000000000000000000000000000000000602082015250565b6000611e48602183611811565b9150611e5382611dec565b604082019050919050565b60006020820190508181036000830152611e7781611e3b565b9050919050565b7f4552433732313a20617070726f76652063616c6c6572206973206e6f74206f7760008201527f6e6572206e6f7220617070726f76656420666f7220616c6c0000000000000000602082015250565b6000611eda603883611811565b9150611ee582611e7e565b604082019050919050565b60006020820190508181036000830152611f0981611ecd565b9050919050565b7f4552433732313a207472616e736665722063616c6c6572206973206e6f74206f60008201527f776e6572206e6f7220617070726f766564000000000000000000000000000000602082015250565b6000611f6c603183611811565b9150611f7782611f10565b604082019050919050565b60006020820190508181036000830152611f9b81611f5f565b9050919050565b7f4552433732313a206f776e657220717565727920666f72206e6f6e657869737460008201527f656e7420746f6b656e0000000000000000000000000000000000000000000000602082015250565b6000611ffe602983611811565b915061200982611fa2565b604082019050919050565b6000602082019050818103600083015261202d81611ff1565b9050919050565b7f4552433732313a2062616c616e636520717565727920666f7220746865207a6560008201527f726f206164647265737300000000000000000000000000000000000000000000602082015250565b6000612090602a83611811565b915061209b82612034565b604082019050919050565b600060208201905081810360008301526120bf81612083565b9050919050565b600081905092915050565b60008190508160005260206000209050919050565b600081546120f381611d29565b6120fd81866120c6565b9450600182166000811461211857600181146121295761215c565b60ff1983168652818601935061215c565b612132856120d1565b60005b8381101561215457815481890152600182019150602081019050612135565b838801955050505b50505092915050565b7f2f6170692f6d6972726f722f7572692f00000000000000000000000000000000600082015250565b600061219b6010836120c6565b91506121a682612165565b601082019050919050565b60006121bc82611806565b6121c681856120c6565b93506121d6818560208601611822565b80840191505092915050565b7f2f00000000000000000000000000000000000000000000000000000000000000600082015250565b60006122186001836120c6565b9150612223826121e2565b600182019050919050565b600061223a82866120e6565b91506122458261218e565b915061225182856121b1565b915061225c8261220b565b915061226882846121b1565b9150819050949350505050565b7f4552433732313a206d696e7420746f20746865207a65726f2061646472657373600082015250565b60006122ab602083611811565b91506122b682612275565b602082019050919050565b600060208201905081810360008301526122da8161229e565b9050919050565b7f4552433732313a20746f6b656e20616c7265616479206d696e74656400000000600082015250565b6000612317601c83611811565b9150612322826122e1565b602082019050919050565b600060208201905081810360008301526123468161230a565b9050919050565b7f4e487b7100000000000000000000000000000000000000000000000000000000600052601160045260246000fd5b6000612387826118c1565b9150612392836118c1565b9250827fffffffffffffffffffffffffffffffffffffffffffffffffffffffffffffffff038211156123c7576123c661234d565b5b828201905092915050565b7f4552433732313a206f70657261746f7220717565727920666f72206e6f6e657860008201527f697374656e7420746f6b656e0000000000000000000000000000000000000000602082015250565b600061242e602c83611811565b9150612439826123d2565b604082019050919050565b6000602082019050818103600083015261245d81612421565b9050919050565b7f4d616769634d6972726f724e46543a206d6972726f726564204e46547320636160008201527f6e6e6f74206265207472616e7366657272656400000000000000000000000000602082015250565b60006124c0603383611811565b91506124cb82612464565b604082019050919050565b600060208201905081810360008301526124ef816124b3565b9050919050565b7f4552433732313a20617070726f766520746f2063616c6c657200000000000000600082015250565b600061252c601983611811565b9150612537826124f6565b602082019050919050565b6000602082019050818103600083015261255b8161251f565b9050919050565b7f4552433732313a207472616e7366657220746f206e6f6e20455243373231526560008201527f63656976657220696d706c656d656e7465720000000000000000000000000000602082015250565b60006125be603283611811565b91506125c982612562565b604082019050919050565b600060208201905081810360008301526125ed816125b1565b9050919050565b60006125ff826118c1565b91507fffffffffffffffffffffffffffffffffffffffffffffffffffffffffffffffff82036126315761263061234d565b5b600182019050919050565b7f4e487b7100000000000000000000000000000000000000000000000000000000600052601260045260246000fd5b6000612676826118c1565b9150612681836118c1565b9250826126915761269061263c565b5b828204905092915050565b60006126a7826118c1565b91506126b2836118c1565b9250828210156126c5576126c461234d565b5b828203905092915050565b60006126db826118c1565b91506126e6836118c1565b9250826126f6576126f561263c565b5b828206905092915050565b7f4e487b7100000000000000000000000000000000000000000000000000000000600052603260045260246000fd5b600081519050919050565b600082825260208201905092915050565b600061275782612730565b612761818561273b565b9350612771818560208601611822565b61277a81611855565b840191505092915050565b600060808201905061279a6000830187611956565b6127a76020830186611956565b6127b46040830185611a6c565b81810360608301526127c6818461274c565b905095945050505050565b6000815190506127e081611777565b92915050565b6000602082840312156127fc576127fb611741565b5b600061280a848285016127d1565b91505092915050565b600061281e826118c1565b9150612829836118c1565b9250817fffffffffffffffffffffffffffffffffffffffffffffffffffffffffffffffff04831182151516156128625761286161234d565b5b828202905092915050565b6000612878826118c1565b91506000820361288b5761288a61234d565b5b600182039050919050565b7f537472696e67733a20686578206c656e67746820696e73756666696369656e74600082015250565b60006128cc602083611811565b91506128d782612896565b602082019050919050565b600060208201905081810360008301526128fb816128bf565b905091905056fea2646970667358221220701b94b08d4641e694a111dd67881790af9c2ce657777ac3dddf0b2d262bb32564736f6c634300080d0033",
  "devdoc": {
    "kind": "dev",
    "methods": {
      "approve(address,uint256)": {
        "details": "See {IERC721-approve}."
      },
      "balanceOf(address)": {
        "details": "See {IERC721-balanceOf}."
      },
      "constructor": {
        "params": {
          "_api": "URI for the MagicMirror backend server.",
          "_chain": "Chain ID for the chain to mirror NFTs on."
        }
      },
      "getApproved(uint256)": {
        "details": "See {IERC721-getApproved}."
      },
      "isApprovedForAll(address,address)": {
        "details": "See {IERC721-isApprovedForAll}."
      },
      "name()": {
        "details": "See {IERC721Metadata-name}."
      },
      "ownerOf(uint256)": {
        "details": "See {IERC721-ownerOf}."
      },
      "safeTransferFrom(address,address,uint256)": {
        "details": "See {IERC721-safeTransferFrom}."
      },
      "safeTransferFrom(address,address,uint256,bytes)": {
        "details": "See {IERC721-safeTransferFrom}."
      },
      "setApprovalForAll(address,bool)": {
        "details": "See {IERC721-setApprovalForAll}."
      },
      "supportsInterface(bytes4)": {
        "details": "See {IERC165-supportsInterface}."
      },
      "symbol()": {
        "details": "See {IERC721Metadata-symbol}."
      },
      "tokenURI(uint256)": {
        "params": {
          "_tokenId": "ID of the token to retrieve a URI for."
        },
        "returns": {
          "_0": "URI for the given token."
        }
      },
      "transferFrom(address,address,uint256)": {
        "details": "See {IERC721-transferFrom}."
      }
    },
    "title": "MagicMirrorNFT",
    "version": 1
  },
  "userdoc": {
    "kind": "user",
    "methods": {
      "api()": {
        "notice": "URI for the MagicMirror backend server."
      },
      "chain()": {
        "notice": "Chain ID for the chain to mirror NFTs on."
      },
      "mint()": {
        "notice": "Mints a new MagicMirror NFT."
      },
      "tokenURI(uint256)": {
        "notice": "Retrieves the URI for a given token."
      }
    },
    "notice": "MagicMirrorNFT is a contract for mirroring NFTs on other networks. MagicMirror is meant         to be used in conjunction with a trusted MagicMirror backend. It's possible to use the         same backend to serve NFTs for multiple different networks by specifying a chain ID.",
    "version": 1
  },
  "storageLayout": {
    "storage": [
      {
        "astId": 25,
        "contract": "contracts/MagicMirrorNFT.sol:MagicMirrorNFT",
        "label": "_name",
        "offset": 0,
        "slot": "0",
        "type": "t_string_storage"
      },
      {
        "astId": 27,
        "contract": "contracts/MagicMirrorNFT.sol:MagicMirrorNFT",
        "label": "_symbol",
        "offset": 0,
        "slot": "1",
        "type": "t_string_storage"
      },
      {
        "astId": 31,
        "contract": "contracts/MagicMirrorNFT.sol:MagicMirrorNFT",
        "label": "_owners",
        "offset": 0,
        "slot": "2",
        "type": "t_mapping(t_uint256,t_address)"
      },
      {
        "astId": 35,
        "contract": "contracts/MagicMirrorNFT.sol:MagicMirrorNFT",
        "label": "_balances",
        "offset": 0,
        "slot": "3",
        "type": "t_mapping(t_address,t_uint256)"
      },
      {
        "astId": 39,
        "contract": "contracts/MagicMirrorNFT.sol:MagicMirrorNFT",
        "label": "_tokenApprovals",
        "offset": 0,
        "slot": "4",
        "type": "t_mapping(t_uint256,t_address)"
      },
      {
        "astId": 45,
        "contract": "contracts/MagicMirrorNFT.sol:MagicMirrorNFT",
        "label": "_operatorApprovals",
        "offset": 0,
        "slot": "5",
        "type": "t_mapping(t_address,t_mapping(t_address,t_bool))"
      },
      {
        "astId": 1699,
        "contract": "contracts/MagicMirrorNFT.sol:MagicMirrorNFT",
        "label": "api",
        "offset": 0,
        "slot": "6",
        "type": "t_string_storage"
      }
    ],
    "types": {
      "t_address": {
        "encoding": "inplace",
        "label": "address",
        "numberOfBytes": "20"
      },
      "t_bool": {
        "encoding": "inplace",
        "label": "bool",
        "numberOfBytes": "1"
      },
      "t_mapping(t_address,t_bool)": {
        "encoding": "mapping",
        "key": "t_address",
        "label": "mapping(address => bool)",
        "numberOfBytes": "32",
        "value": "t_bool"
      },
      "t_mapping(t_address,t_mapping(t_address,t_bool))": {
        "encoding": "mapping",
        "key": "t_address",
        "label": "mapping(address => mapping(address => bool))",
        "numberOfBytes": "32",
        "value": "t_mapping(t_address,t_bool)"
      },
      "t_mapping(t_address,t_uint256)": {
        "encoding": "mapping",
        "key": "t_address",
        "label": "mapping(address => uint256)",
        "numberOfBytes": "32",
        "value": "t_uint256"
      },
      "t_mapping(t_uint256,t_address)": {
        "encoding": "mapping",
        "key": "t_uint256",
        "label": "mapping(uint256 => address)",
        "numberOfBytes": "32",
        "value": "t_address"
      },
      "t_string_storage": {
        "encoding": "bytes",
        "label": "string",
        "numberOfBytes": "32"
      },
      "t_uint256": {
        "encoding": "inplace",
        "label": "uint256",
        "numberOfBytes": "32"
      }
    }
  }
}